:2000000000400020193C010001C9011001C9011001C9011001C9011001C9011001C9011008
:1C00200001C9011001C9011001C9011001C9011001C9011001C901103FC9011089
:20003C0080B54FF4FC720FF278011A480EF018FC012119484174002202210270C17601BDEC
:20005C002DE9F0410FF2502214493820136854689568D6681769D2F814C0D2F818E0D2F8F9
:20007C001C800B604C608D60CE600F61C1F814C0C1F818E0C1F81C8020322031401EE5D1DC
:20009C0050689368D46812680A6048608B60CC60BDE8F081480400215903002100C00021D1
:2000BC00410500217D0500212D06002170B51D46004C204787B2000010B5014800470000FD
:2000DC00D509000070B5614C6148254650358047022809D14034E1885E4A914204D1E97C5E
:2000FC00890601D4911DE18070BD70B557495A4A084650300378002B10D08379012B0DD181
:20011C00037C5B09DB0709D0097D544DC1746C7F20202043687790476C7770BDFF21C17420
:20013C00904770BD10B54E48484C804702280ED121464031CA88474B9A4208D1CA7C5209CE
:20015C00D20704D0227D920601D49A1DCA8010BD70B53E4843494030C07C4009C00707D032
:20017C003E4D41482C8B2043288388472C8370BD884770BD10B53B48344CAC388047214609
:20019C0053310A789309DB0705D04034A2730A7803231A430A7010BD2C4940310871182876
:2001BC0012D004DC0A280BD00B2804D10AE025280CD02A280CD02D4980004018C0687047DE
:2001DC002B4870472B4870472B4870472B4870472B48704770B504461C484E252D5CAE09AB
:2001FC00F60716D0067D3007000F052803D00120054202D00DE00220FAE7E80905D07006D1
:20021C0003D54868800F012803D05B085B0052085200062B03D01020022B11D011E0FB20F7
:20023C00024002232046FFF741FF002807DAC100611A2039497E1422114200D1002070BD93
:20025C00024303432046FFF731FF70BD4401002137CB000004140000EBC80000A800002142
:20027C00F5B4000053AD00002020000080DF00001D050021F9040021CD040021930400210F
:20029C006D04002110B5034CFFF716FF20680028FAD110BD0011044068610000F825F965B0
:2002BC00F9754500450045002600260057A3520052004C00401F401F401F3F000000000053
:2002DC00304000400140034007400F404F40CF40CF41CF43CF47CF4FCF3FCF2FCF1FCF0F6C
:2002FC00000000000000000000000F00080000003F00000040003F000000040068000E0093
:20031C00DC00060043001A00050000000000020000000000000000000400C00000000400B3
:20033C00C000000007000000000000000000000000000000000000003040004001400340A6
:20035C0007400F404F40CF40CF7FCF6FCF5FCF4FCF3FCF2FCF1FCF0F00000000000000009D
:20037C0050C00091007070C00091007082312100319110B10070018101B100A1823132910D
:20039C0010B101911110418141227740F106007051C0019130181039833108D01831416FD1
:2003BC003100319110B18314141683680070251050C00091F4C340C12014036F3110410497
:2003DC005082F0229840512622C082312100319110B163393110410482C08231210031919B
:2003FC0010B163393110A2C082312100319110B150101531051405920070676452C03110A6
:20041C0031066131C1026A6412C13110213971065131E1026A64007051C0019101CCE2C0CC
:20043C006A64676411C1C2C06A6450B054B0007140804022D6440022C94060B08180111EC9
:20045C00C944007054A064B0F0800022C9404012B09032B070C1DF6811C122C16A6470C1C0
:20047C00E46851C00191E2C0823160820200329110B130C2EE68538253395339B16460C347
:20049C00F4688012B09032B00070676401C122C16A6401C1C2C06A645382B164C012B09074
:2004BC0032B00070676472C281C06A6422C111C16A6402C011C16A6462C031C36A6462C3D2
:2004DC0011C16A6402C311C16A6453825339B164E2C36F6411221C4142C281C86A6452C24E
:2004FC0011C16A6472C2E1CE6A6402C281C86A6402C201C86A64B0C030690070676442C211
:20051C0001C86A6452C211C06A6472C2E1C06A6402C001C16A6462C001C36A6422C101C127
:20053C006A6462C301C16A6402C301C16A645382B16400708180111E5C4150B054B000712B
:20055C00408040225D4154A064B0F1800122514500700022514160B04E61000000000000AA
:20057C000000000000000000067305720B720E7250B00071818060B050A09280F0EFF1928C
:20059C0002936A6741228C458080F1C11004301601110114016CB561B661B761B861B9618D
:2005BC00BA61BB61BD61BF61C161C36126632D63F0C002043231412A121432160111211412
:2005DC00016CDA61C561E061C761CB61B561B561B561F461C561FA61C761CB61B561B56104
:2005FC00B561F461C561FA61C761CB61B561B561B561E761C561ED61C761CB61B561B56121
:20061C00B561CF61CF61CF61CF61CF61CF61C064CF61F964CF610665CF613265CF6174676A
:20063C00CF611166CF61C0644E65F964CF61066511663265CF618280E0DFF2926A67B0B044
:20065C00D661B1B00673057230B06C61D0CF6A6784C203C0C0C37C64207851788278E378B7
:20067C001579B6780062C0CF6A6784C203C0C0C37C64307861789278F3781579C678006250
:20069C00B0CF6A6784C203C0C0C37C6440787178A27803791579D678109221923292439281
:2006BC005492659256911FC0FF914039F00601101031101400927067CF61E3B054A0F08076
:2006DC0050221A4640800022BE461262E3A000C86091598150B0918041228E46A0CF6A6734
:2006FC0012828231823942398B641282F2062F101F312F141682D622334640C1346200C5AF
:20071C0020140D6F6D39DE10F4C34E0482C082312E006D39A2C082312D001A828A39FA0606
:20073C002082803180390BC00B18BC10AC18038239149B141082F0060110103110145181C2
:20075C0010140C14C622C94631D0C1266462021011C0013010C00118021882312100C126C2
:20077C00919103B013B063B053B041800122BE46B481C491D581B51C774E95186591F0803E
:20079C00102269428C623D9110B13E9110B1E08000228146E6228142E0B0951865910F926B
:2007BC005981F914F0805022114210228C464D6390CF6A6763B052A03082F2C0200402107E
:2007DC0011C0013010C00118021882312100C1269191919113B003B063B053B064B054B055
:2007FC00007141800122BE4663B064B0F08050221142B181C191D1819118619131B0A462D0
:20081C002967E0A059810582591480C0007163B0BA6A6962E3A0018262818231823D80EF61
:20083C00F19202936A6703A0007037824739873930828039F006021011C0013010C0011849
:20085C00021882312100C126819102B012B030824039F006021011C0013010C001180218E9
:20087C0082312100C126919103B013B063B053B0007153A062B052B041800122BE46A4816E
:20089C00C491D581B51CFE4E95186591F0801022F0428C62B481C491D4814518751C084FEB
:2008BC00F0801022F0428C623D9110B13E9110B1E08000221247E6221243E0B065910F92DC
:2008DC005981F914F0805022114210228C4630632967E0A0598105825914F0C0007162B038
:2008FC00226BF062A2808B64CF6112824239F2068B6050B00071CF6170CF6A674082418096
:20091C000122BE46A481C491D58195186591F18011228C46336B41800122BE46A481C491AB
:20093C00D581C51C1C4B95186591F08010223F438C6260CF6A67408241800122BE46B48169
:20095C00C491D58195186591F18011228C46506B41800122BE46B481C491D581C51CB44A55
:20097C0095186591F08010225C438C62E092D08200226B47C0B20070A080F022874330B033
:20099C0002C1623101C0A080001E8043F022814380F86031603981632010101A136F236E5A
:2009BC0011161216826B00702DE9F84FDFF81885DFF8181588F80000002008600921DFF891
:2009DC00100501700D2141804FF408718180DFF80405DFF8041501608A7EDFF80005027042
:2009FC00FF2ACB7E437008BFFF2B0D7F85704E7FC6708F7F0771C97F417115D1FF2D08BFE8
:200A1C00FF2E11D1FF2F08BFFF290DD1DFF8D0140A7802704A7842708A788270CA78C27025
:200A3C000A79027149794171DFF8B81402780A70FF2542784A7082788A70C278CA7002791E
:200A5C000A714079DFF8A02448710021DFF89C04057045708570C570057145711180DFF872
:200A7C009004DFF89014466BDFF88C247078087031781170B078DFF884140870716908791F
:200A9C00DFF87C14421E0A70F078DFF878140870B069DFF87414086008B915F031FFF06987
:200ABC00DFF86844206008B915F02AFF2068DFF8607401688847216851F8042F3846904763
:200ADC00DFF85004DFF850143862DFF850047862306A086008B915F013FF706ADFF8401416
:200AFC00086008B915F00CFFDFF838B4DFF838649BF8040016F07AFA306008B900F045B91B
:200B1C009BF80500DFF8247416F070FA386008B9306837E19BF80600DFF8144416F066FA0B
:200B3C00206020B9306816F069FA38682AE19BF80700DFF8009416F059FAC9F8000038B984
:200B5C00306816F05BFA386816F058FA206819E1DFF8A4130A789BF80000DFF8DCA3921C65
:200B7C00504380B216F042FACAF8080058B9306816F044FA386816F041FA206816F03EFAF4
:200B9C00D9F80000FEE0DC480078002800F00281BBF80210DFF8A4B3484380B216F026FA7D
:200BBC00CBF8040078B9306816F028FA386816F025FA206816F022FAD9F8000016F01EFA03
:200BDC00DAF80800DEE0CC48007816F00FFADC49086080B9306816F011FA386816F00EFAA9
:200BFC00D9F8000016F00AFADAF8080016F006FADBF80400C6E0C04800781C21484316F053
:200C1C00F5F9D04A1060B0B9306816F0F7F9386816F0F4F9206816F0F1F9D9F8000016F067
:200C3C00EDF9DAF8080016F0E9F9DBF8040016F0E5F9C348A5E0B0480078400116F0D6F91F
:200C5C00C1490860D8B9306816F0D8F9386816F0D5F9206816F0D2F9D9F8000016F0CEF99B
:200C7C00DAF8080016F0CAF9DBF8040016F0C6F9B348006816F0C2F9B249086882E09E4842
:200C9C000078000116F0B2F9B0490860F0B9306816F0B4F9386816F0B1F9206816F0AEF934
:200CBC00D9F8000016F0AAF9DAF8080016F0A6F9DBF8040016F0A2F9A148006816F09EF9B9
:200CDC00A049086816F09AF99F485AE08A480078000116F08BF99E49086018BB306816F050
:200CFC008DF9386816F08AF9206816F087F9D9F8000016F083F9DAF8080016F07FF9DBF89D
:200D1C00040016F07BF98E48006816F077F98D49086816F073F98C48006816F06FF98B494F
:200D3C0008682FE0744800783021484316F05EF9884A106070BB306816F060F9386816F0A1
:200D5C005DF9206816F05AF9D9F8000016F056F9DAF8080016F052F9DBF8040016F04EF9CB
:200D7C007748006816F04AF97649086816F046F97548006816F042F97449086816F03EF9A3
:200D9C007348006816F03AF9002015F0B9FD4FF4804192E0316801200871306805733168AE
:200DBC004D73306885733168CD7330680574002031684D743268D072A0223168487103214F
:200DDC003068C28001720720316848720020326890722821306841820121C17600203168BE
:200DFC004877326882F85E00012031680877326882F85D00396808713868057339684D7369
:200E1C00386885733968CD7338680574002039684D743A68D072396848713A6890724FF47D
:200E3C00207039680022C88008818A7401213A68D17421680D732268557321688D732268FD
:200E5C00D57321680D740021226855742368D9720121226811710021236859712168C88065
:200E7C000881002088722168887405202268D0743948016888472A490A6805461068804713
:200E9C0027490A6852F8043F0020984718481D4BC16818780A88314902430A802846304985
:200EBC000A6890470C212F4800F05EF80F4800F05FF800F061F84FF4005198F80000BDE833
:200EDC00F44F0CF0E7B900BF6E4F0020044F0020604E0020084F0020B63F00502C4E0020E4
:200EFC00E81200503C4E00200C4F0020344E00200C9401006D4F00207B4F00206B4F002084
:200F1C00724F00206C4F0020F04E0020F44E00207C4B002009700100F84E002019700100E8
:200F3C00FC4E0020AC2A0020104F00209C2B0020184F0020A02B002048090011684E002025
:200F5C00004F00206C09001170090011884E00208C4E0020904E002058250020544F0020A8
:200F7C005C250020F84D0020DFF800F0E5710110DFF800F01D6E0110DFF800F04D71011028
:200F9C00B0B5174C241D20680004070C23D01248006800688047114991F90720824205DDF8
:200FBC0010F1800FB8BF6FF07F00C8718D88BD4210D80A68D4F8D40F801A801C1F2888BF16
:200FDC001F207F1B4008C7404FF6FF70EF19B84238BF071C8F80B0BDEC0100105C0900110E
:040FFC003010094068
:20100000B41200001810000015AB0110FDB301106DC00110FDAE011099B5011000000000F7
:08102000000000002D0000009B
:20102800B01200003C100000B1C00110A9BF011067C0011069B80110000000000000000035
:041048003000000074
:20104C00B012000060100000BDC00110CDB30110D9BD01106DB3011000000000000000005B
:04106C00310000004F
:2010700000000000CC2A002004000000000000000000000020000000E8C901103000000034
:2010900028100000D42A00200400000000000000000000000C000000D8CA0110180000000F
:2010B0004C100000DC2A002004000000000000000000000024000000F0CA01101800000093
:2010D00000000000E42A00200400000000000000000000001000000018CA01102C0000009F
:2010F00000100000F42A0020040000000000000000000000200000006CCA01102400000003
:20111000FFFFFFFFFC2A00200400000000000000000000002800000090CA011024000000C2
:20113000FFFFFFFF042B00200400000000000000000000001400000008CB01101800000040
:20115000FFFFFFFF0C2B002004000000000000000000000058000000B4C90110340000000E
:20117000FFFFFFFF142B00200400000000000000000000001000000020CB011018000000DC
:20119000FFFFFFFF1C2B00200400000000000000000000001C000000B4CA01102400000009
:2011B000FFFFFFFF242B00200400000000000000000000003800000044CA01102800000031
:2011D000FFFFFFFF2C2B00200400000000000000000000005400000078C901103C000000A6
:0811F00001000000F49301006E
:0411F80001000000F2
:0411FC0000000E00E1
:0412000000000F00DB
:0412040032000000B4
:0412080001000000E1
:04120C00682900202D
:0412100000020000D8
:0412140000000000D6
:0412180001C90110F7
:04121C0000000000CE
:0412200000000000CA
:0412240008000000BE
:0412280000002200A0
:04122C00D4270020A3
:0412300000000000BA
:0412340000000000B6
:0412380008000000AA
:04123C00EC2800207A
:0412400000000000AA
:0412440000000000A6
:04124800080000009A
:04124C00000000009E
:04125000000000009A
:041254000000000096
:041258000000000092
:04125C00010000008D
:041260003C28002006
:041264000600000080
:041268000100000081
:04126C000427002033
:04127000000000007A
:041274000000000076
:041278000002000070
:04127C00000000006E
:02128000290043
:02128200010069
:02128400250043
:02128600300036
:02128800310033
:02128A002D0035
:02128C0001005F
:01128E00015E
:08129000030000008893010037
:0812980000000000000000004E
:0412A0000000010049
:0412A4000000030043
:0412A80013C401105A
:0412AC00936D01003D
:0412B000B812000070
:0412B400B81200006C
:0412B8000000000032
:0412BC006C2A002078
:0412C000F56E0100C6
:0412C4002000000006
:0412C800849201000B
:0412CC001891010074
:0412D00029C101101F
:0412D400A30D010065
:0412D80043110100BD
:0412DC00A1C7011095
:0412E000A3C701108F
:0412E4000000000006
:0412E8006791010009
:0412EC00008F01006E
:0412F000188F010052
:0412F400E88E01007F
:0212F8000200F2
:0212FA000900E9
:0212FC000100EF
:0212FE000000EE
:0113000001EB
:041304004D6E010029
:04130800C54D0100CE
:04130C00BD610100BE
:04131000AD510100DA
:04131400455201003D
:04131800053B010090
:04131C005D1001005F
:04132000EF70010069
:04132400ED240100B3
:0413280015C70110D4
:04132C0025C70110C0
:201330002DE9F04F9A4C04F10C0004F11801ADF1AC0D11F011FE944F791C0A6804A80260F4
:2013500089888180914904AA102008F04FF804F1940015F0B6FEE06104F1A00015F0B1FEA8
:20137000D64D322201232062294604F1EC0012F00DFB6422022304F58870294612F006FBD8
:20139000DFF83C9310201F220223494608F02EF801260020ADF87A005021ADF87C10A02587
:2013B0008DF8856080468DF886600DF18502ADF87E50C820ADF880803146ADF8820040F22D
:2013D000053003F0DDFF40F2063002210DF17A0203F0D6FF4FF442701D2104F1CD0203F042
:2013F000CFFF04F1300240F20730072103F0C8FF4FF4447031460DF1860203F0C1FF40F2C4
:20141000113002211FAA03F0BBFF40F2123002210DF17E0203F0B4FF40F21330022120AAC5
:2014300003F0AEFF4FF4457002210DF1820203F0A7FF04F1B80042461523B249009010209E
:2014500007F0D4FF4946102006222B4607F0CEFF4946102007222B4607F0C8FF49461020C0
:2014700008222B4607F0C2FF4946102009222B4607F0BCFFCDF87480B1468DF887601DA81B
:201490008DF88980A04D8DF888904FF481628DF88A90042300902946102007F0A7FF0DF16E
:2014B00087004FF48062334600902946102007F09DFF22A840F2024233460090294610204D
:2014D00007F094FF0DF1890040F20342334600902946102007F08AFF0DF18A0040F206424A
:2014F000334600902946102007F080FF874910204FF0FF3207F07AFF854910204FF0FF3270
:2015100007F074FFDFF80CA210201323834A824E00905146019607F069FF814E30788000B5
:2015300015F038FF7F4DBB46E86020B33078800015F030FF2861F0B13078800015F02AFF9B
:201550006861C0B1E9684FF6FF7013F0D5FC29694FF6FF7013F0D0FC69694FF6FF7013F0CA
:20157000CBFC7149102005F51072009019230191514607F03BFF04F12C00CD49A8600E4675
:2015900077780878FFB905E0F88D0100A1B5001008020020324604F12801116214F02AF9E9
:2015B00037463D460246CDF8008030464430C149019007F15400029006F11C000390AB7862
:2015D000102007F013FFBC4904F13802102007F00DFF207B14F00EF9B8490246102007F045
:2015F00005FF207B14F006F9B5490246102007F0FDFEB548B349086008F03CFDB349102013
:201610000C2207F0F3FEB44EB14D4F46B01D2390A069B04A41464FF0FF3316F043FA002829
:201630002690F5D040461C9021A91CAA1EA813F0CFFD002840F0CD81BDF87810207BB9464B
:20165000102940F0BF819DF88410884240F0BA811C9E31884FF6FF728A4200F08B814946F3
:2016700033782791913B45D01F3B40F077817178162927D030797E2836D07F2834D1A37859
:20169000308984F80380208273B3B6A00A2110F0BBF8B4F81090484610F0F2FE8246484666
:2016B00010F0EEFE15F0C0FB81B2504610F0ACF8AFA0022110F0A8F816E0C046796F01000A
:2016D000BD84011014F096F803464846C64900907288102007F08AFE30B9484614F03AF949
:2016F00066624046279039E1317906F1080016F0D5F933E173780E3B18D09B1E00F02B81B9
:201710002CE1C046F1FC0000F55000005560010091640100F156010070930100F81D002047
:20173000694F0020D811002058930100B08841F20541814240F01281B6683378002B40F071
:201750000D817178B0785A4B00EB0120D989814240F00481F0784042C0B214F041FF04F1BA
:20177000600204F1580382E8030093E8030004F1700204F1500383E8030092E80300B5A2CB
:201790000CCA06F0D4FE81468A46B4A204F1680080E800060CCA484606F0C9FE0B46024629
:2017B0005146484608F0E0FE249004F1780282E80300F07825914042C0B214F011FF04F173
:2017D00058020CCA06F0AEFE259B249A0AF072FA02460B4604F1580003C806F0A8FE259B36
:2017F000289004F1600282E80300249A29919DA003C806F097FE53464A460AF05BFA814613
:201810008A4604F1800080E80006F0784042C0B214F0E6FE04F158020CCA06F083FE259B65
:20183000249A0AF047FA02460B4604F1580003C806F07DFE04F1580282E80300299928983F
:2018500004F1700686E8000612F030F9BB4A61695054606909281CBF401C60617ED1082290
:20187000B648511C401E10F8013F46789E42DCBF06704370491EF6D1521EF1D5DFF8BCC22C
:201890000A2640461CF8011B761E0844FAD10A2190FBF1F0C4F81480C0B25028E0711DDC8C
:2018B0004628BCBFA77284F80980E67AC6B932E0A8150020373E0100256701005188011056
:2018D000318101106C0D0020AD26010081B30010281F0020070000C08C040020E772677274
:2018F00095F8A81003290BD14B2809DA267A3EB1667A2EB1B1A00C210FF086FF84F80980E0
:20191000E67A46B195F8A800032804D1E079462801DA267A96B9A67ABEB195F8A8000328AB
:2019300013D1E079502810DD207A01280DD0B9A009210FF069FF2772E77206E0B8A00B210F
:201950000FF062FF84F80880A7727C4841460A220EF053FF02E0082010F0EEFDDDF89C903D
:2019700030E0C0464D54552053697A653A2000C00A0D00C07088400824D3666A16B3A07BB4
:2019900006F10803401CA073C349009372883379102007F02BFD5FFA80FABAF1160F11D0AE
:2019B000207BBAF1040F0DD0666A13F023FF034640460D4900907288102007F017FD50466C
:2019D00013F0C8FF1C9820B1B9F1000F01D015F09AFC2698C008C0F0DF80206A16F05AF80C
:2019F000002840F0D98001E0D16E0100206A16F04DF880680646002800F0CE80FFE7007838
:201A1000102840F0C9802078012806D1A5484146C8220EF0F2FEA34802E06078A14940183A
:201A30007168327A0CF022FF206A14F0D0FF706815F069FC304613F079FA206A16F02AF8B7
:201A5000A0B9A06984F80080042116F01BF820780EE0C046000000E04D62503F000000A090
:201A70009999B93F000000000000F03F27703846327A617800281144CEB2667000F08C8094
:201A9000002E00F089800BF107010A6819A802608B8883808A7982710BF10E010D2215A873
:201AB0000CF0E4FE11A80BF11B010D220CF0DEFE0DA80BF128010E220CF0D8FE09A80BF1D7
:201AD000360110220CF0D2FE04A80BF1460111220CF0CCFE734919A8062214F0D7FA28B186
:201AF0002399B61F032032460EF0FCFE6D494620287006466E703346AB703246EA7015A8B1
:201B100015F072F858B995F8A800032810D1E0793C28A8BF45A00CDA47A00A2138E0614931
:201B300011A815F061F858B995F8A800032802D044A00B212CE046A00D2129E09002002050
:201B500058490DA815F050F880B995F8A80003281CBF43A00C211BD19BF800001BA93A468B
:201B70008DF86C0004200EF0BDFE13E04D4909A815F03AF848B14B4904A815F035F848B9AA
:201B900084F802803AA0102102E0A7703DA00F210FF03AFE84F801802698C00F20D31AE078
:201BB000E06914F014FF061C15D033885B1E0CD05B1E0DD1B07808F06FF809E041542B57C0
:201BD000454C434F4D450D0A00C0B07805F070FD304613F0ABF9E06915F05CFF0028DFD042
:201BF0002698400804D32D4815F0EEFB09F022FB26988008FFF40CAD294815F0E5FB607B5C
:201C100006287FF405AD28482249C289102007F0EDFBFDE441542B4C4F434B0D0A00C04645
:201C300041542B554E4C4F434B0D0A0041542B4F55544341520D0A0041542B494E4341521F
:201C50000D0A00C041542B464F425F4E4F0D0A0041542B464F425F46494E440D0A00C046BF
:201C700041542B727373695F6E6F0D0A00C046C041542B434C4F53455F44454255470D0AA7
:201C900000C046C041542B4F50454E5F44454255470D0A0025AB0010DDFE0010F4020020BE
:201CB000180300208C040020A81500202DE9F04F0C4685B0834614F8010BDFF870278DF89C
:201CD000000018280BF1FD010BF1E7080BF166090BF20D1A0BF5B0760BF59C750BF5C677CC
:201CF00000F29183DFE810F019006F005F0191008F038F03FA00690311012301FE000D01C2
:201D100033018F038F037C018F03610155017503D602D60227028F03740214F8010B8BF8A0
:201D30008600022221460BF1880015F0A7FE014602220BF18A0015F0A1FE014602220BF158
:201D50008C0015F09BFE014602220BF18E0015F095FE04469BF8860040008BF886000BF114
:201D7000860102224888400048800BF186008188490081800BF186010889000108812146F6
:201D90000BF1840015F07AFEB9F81E10BBF80800091A89B247F6FF7291422ADA0BF1860136
:201DB000C8888A88401C520050430A89904203D33B208AF80B0039E2012089F81C00002054
:201DD000ABF81E001EE0052221460BF1610015F055FE014602220BF1920015F04FFE0BF1AA
:201DF000860047F6FF728189BBF80800091A89B2914280F218820BF18600012181720021E5
:201E1000ABF81E10012028700CE398F81600C1070AD41A2198F80D0088F80E10012808BF87
:201E30000D213FD00D21CDE1002089F8000089F806000822012088F8110021460BF1B00062
:201E500015F01CFE014602220BF1B80015F016FE0BF1A80601460822304615F00FFE04462E
:201E70000821304615F006FE0BF19C0604222146304615F003FE0421304615F0FBFD0BF16F
:201E9000A00015F0F3FD0BF1980015F0EBFDDFF8A005018841F08001018098F80D0001281E
:201EB00006D10421584605B0BDE8F04F12F032BE99F81000012804BF99F811100F290BD19A
:201ED000584610F09BFC042158460FF0D5FD0F2089F81A00FD2175E1042173E1012088F8D1
:201EF0000F009FE2002089F8000089F8060088F800000B21012088F80D00002088F801001F
:201F100060E1012088F810008CE2002002F10906235C365C33432354561C365C33400B545B
:201F3000401C0828F2DB584610F072F870E2002002F10905235C2D5C2B432354551C2D5CD6
:201F50002B400B54401C0828F2DB022048E299F8060008B93D2167E19AF800000128D3D0A6
:201F700014F8011B8AF80310022221460BF5897015F084FD014602220BF58A7015F07EFDA5
:201F900001208AF800009AF8020000281BD10C2118E198F81600C10601D41221D1E05846FC
:201FB00011F0CAF834E221783EE1207830706078707099F8100001280CD199F811100F29FF
:201FD00002D0162902D02DE268732BE2387B40F0010016E205B0BDE8F04F002014F096BC2C
:201FF00098F81600810707D410F0110F08BF0F2000F009821A2252E02078617800EB01204C
:202010002882E178A07800EB012068826179207900EB0120A882E179A07900EB0120E8820D
:20203000207A2876A17A607A00EB01206883217BE07A00EB0120A883A17B607B00EB01203C
:20205000E883217CE07B00EB01202884A17C607C00EB01206884217DE07C00EB0120A88432
:20207000A17D607D00EB0120E8840BF5AA700490688B0390287E0290BBF808000190E88AB3
:202090000090AB8A6A8A298A58460EF06BFF68B198F81600410701D40F2152E01E225846A2
:2020B00005B0BDE8F04F0F2112F050BD688A0BF186018880A88AC880E88A088102208BF8A1
:2020D000860000204880BBF83400C01DA9F81E008888BBF83210884201BF0BF18600C188A5
:2020F000BBF83400814206D10BF186000189BBF8360081421DD099F81000012804BF99F88C
:2021100011100F2907D099F8150020B10F2189F81A10FE2156E0FC2158460FF0ADFCE88A03
:202130000090AB8A6A8A298A9BF8060015F096FC78E1102146E098F8170010F0090F03D1B0
:2021500016218AF80C1060E16078217800F00700014021702078797B0140F97211D0481EA0
:2021700001420CD0490704D5B87B10B10421F97205E0F97A022001421AD14008FBD1F87A55
:2021900008B9B97AF972F87A042803D1584611F09AF8B083F87A15F05DFC3871B28BB97B10
:2021B000012311F075FD0146308B884202D207E0F872E4E7B28BB97B3879012311F068FD10
:2021D00078801721584605B0BDE8F04F0FF054BC60782178814207D100F00700084020709E
:2021F00033D0421E10420FD01E221821584612F0ADFC9BF80610002300221E200CF0A8F9B0
:20221000387B40F04000FCE0F87247F6FF72A078E17800EB012038813989BBF80800091AC1
:2022300089B2914206DB28218AF80B1001208AF80A00F7E00120B871F87A042803D15846DB
:2022500011F041F8B083F87A0BE099F81100162806D1BA7A9BF80610134600200CF078F92A
:20227000B87A3871B28BB97B3879012311F010FD0146308B884205D3B28BB97B3879012335
:2022900011F006FD78800121387B40F0400038732970C7E02078617800EB01207082E1783A
:2022B000A07800EB0120F0826179207900EB01203082E179A07900EB0120B082B18AF089E2
:2022D000884288BF0846B97A042905D140F691229042B8BF4FF42960F28BF0839042B87A67
:2022F00014BF01240024042803D1584610F0EBFF04E0B089F18A884288BF0846B28BB083C3
:20231000904214BF012100210C433089718A328B884288BF0846904214BF012100210C436F
:202330003083B28BB97B3879012311F0B1FC0146308B884205D3B28BB97B3879012311F0FB
:20235000A7FC78807189308A728B814288BF0146718391429BF8063014BF012000200443E5
:202370008A4234490A6802EB4311728B8041121DC00F0A7610B1584612F05AFE9DF80000C7
:20239000142810D144B1F08B0090738BB28B318B9BF8060015F05AFB584605B0BDE8F04FEF
:2023B00015210DF0F1BD1CB1387840F008003870397841F02001397034E020780E280ED063
:2023D0000F2809D0122804D014280CD0162812D028E00020287225E00120287322E00320EF
:2023F00088F815001EE0387840F00200387040F01000387016E0387B40F00200387340F012
:20241000100038730EE08AF80C00584610F082FB40B905B0BDE8F04F074800784FF48041FD
:202430000AF03EBF05B0BDE8F08F00BF882B0020524F0020700900116E4F00202DE9F04FAD
:202450008A468E49074600248C22ADF1B40D02A825940CF00BFA8C4DDFF830820FF2182B3D
:20247000781E00F01183DFF81892401E00F0C682401E00F0F380401E33D0801E40F0428366
:20249000494691F8047201F5017847B35FFA8AF028B37C4B03F16C06304614F0C5FC80B9E6
:2024B000304614F0C1FC0246214630460EF0A5F9304614F0B9FC0246414630460CF0D6F9D5
:2024D00005E0304614F0B0FCC01880F86B7030467BA112F0DCFC00B9012485F82441062064
:2024F000EBE05FFA8AF125AA0DF0EAFA07462598012872D0022862D003285DD0042858D000
:20251000052851D006284DD0072848D00B2843D00C283ED00D283AD00E2835D00F2831D091
:2025300010282DD0112829D0122825D0132821D014281CD0152818D0162814D0172810D03B
:2025500018280CD0192808D01A2804D01B2850D15CA016212AE061A017E066A008E06BA08E
:2025700018E06FA016E073A00FE078A00DE07DA015211BE081A00DE085A00BE089A004E0CE
:202590008EA002E093A008E097A014210EE09CA000E0A0A0132109E0A3A0122106E0A7A08A
:2025B0000D2103E0A9A008E0ACA00E210FF02CF91FE0AEA00921F9E7AFA00F21F6E7B2A025
:2025D00009210FF021F949460120CA790872462AACBFC872CC7220460AE0AEA00B210FF01F
:2025F00013F949462046CA7908724E2AB8BF0120887225983946042208F0F8FC07464046E2
:202610000078A0B1E1A010210FF0FEF838460FF037FF064638460FF033FF14F005FC81B254
:2026300030460FF0F1F8584602210FF0EDF8002F00F0688205F1A801204601220C700EF0DC
:2026500051F905F1F400214610220EF0D6F805F58270214610220EF0D0F853E295F824019F
:20267000002840F01D81504609F0A2FB80B905F1A806032030701AE00A0D00C02887010007
:2026900008020020D01F0020281F00200A02002005F1A80605F1F4002146102234700EF095
:2026B000ACF82146102206F15C000EF0A6F83146204601220EF016F903200EF0D7F821E2DE
:2026D0004100C04641542B424D5F444F4F525F4F50454E5F4C4652460D0A00C041542B42CE
:2026F0004D5F444F4F525F464F55525F52460D0A00C046C041542B424D5F444F4F525F54E6
:20271000485245455F52460D0A00C04641542B424D5F444F4F525F54574F5F52460D0A0028
:2027300041542B424D5F444F4F525F4F4E455F52460D0A0041542B424D5F444F4F525F4FC8
:2027500050454E5F52460D0A00C046C041542B424D5F444F4F525F464F55525F4C460D0A2D
:2027700000C046C041542B424D5F444F4F525F54485245455F4C460D0A00C04641542B42BA
:202790004D5F444F4F525F54574F5F4C460D0A0041542B424D5F444F4F525F4F4E455F4C1A
:2027B000460D0A0041542B424D5F444F4F525F4F50454E5F4C460D0A00C046C02041542B8B
:2027D000434C4F53455F4145524154494F4E0D0A00C046C041542B4F50454E5F414552417A
:2027F00054494F4E0D0A00C041542B434C4F53455F43415257494E444F570D0A00C046C098
:2028100041542B4F50454E5F43415257494E444F570D0A0041542B434C4F53455F534B5906
:202830004C494748540D0A0041542B4F50454E5F534B594C494748540D0A00C041542B465C
:20285000494E445F4341520D0A00C04641542B52494748545F444F4F520D0A0041542B4C47
:202870004546545F444F4F520D0A00C041542B464952450D0A00C04641542B5452554E4BA8
:202890005F4F50454E0D0A0041542B4C4F434B0D0A00C04641542B554E4C4F434B0D0A00D7
:2028B000012840F02F810AF08DFF00287AD126941FFA8AF014F06EFD5FEA000872D005F5BD
:2028D0008270214610220DF098FFA14626A8524643466B49009005F1E400CDF8049007F085
:2028F00033F900285BD1102728A8214627973A460DF083FF269B28A827A9424608F0BCF987
:2029100005F1A80605F5DA7C0DF1A00E23461CF8012B1EF8011B7F1E81EA020141EA0303F0
:20293000F5D118433BD1574B2699404602AA13F081F9002833D19DF8260008282FD19DF89E
:20295000150010282BD1404612F0F0FA9DF815200DF1160006F1DC0113F098FB10BB9DF804
:202970000C200DF10D0006F1B40113F08FFBC8B9229820210122C5F8580106F1BC000DF072
:2029900049FD78B9032085F8A8000EE053656E645F636D645F726573756C743A00C04046DF
:2029B00012F0C4FA05F1A80634702046314601220DF098FF95F8A80003287FF47DAE9DF8D8
:2029D00041100DF142000DF037F806F15C0506F1B40438B9032002A904F060FF4BA00F21F6
:2029F0000EF012FF0DF127000168296040686860676864367760206830605DE6BAF1010FDB
:202A100027D095F8240101280BD0504609F024FD061C0AD005F1F400214610220DF0EDFEE2
:202A300003E050460DF0D6FF064602200DF01EFF05F1A801002E0CBF0220201C012285F81D
:202A5000A80020460DF04EFF34A009210EF0DCFE58E06A794C46A91D04F5C2700BF006FF9A
:202A70006879132290FBF2F7B0FBF2F1617107FB02F1401AA07104F1EC0014F0A5FC41E055
:202A90000C040020EC880100504609F07FFB074601200DF0EBFE40460078A0B122A00821EA
:202AB0000EF0B2FE38460FF0EBFC064638460FF0E7FC14F0B9F981B230460EF0A5FE5846AA
:202AD00002210EF0A1FE002F04BF05F1A80634700FD005F1B000214614220DF08EFE05F14B
:202AF000A8000646214620221C300DF086FEFF20307017B90CF0B6FD287120463146012285
:202B10000DF0F0FE2DB0BDE8F08FC04641542B53455353494F4E4B45590D0A0041542B41CE
:202B30005554480D0A00C046696E666F7265743A000070472DE9F04FD24C04F118012046A8
:202B5000ADF1340D10F008FACF4D00264FF6FF70012366703246E081294604F1A40010F0B3
:202B700015FF0223324604F1C800294610F00EFF0423324604F1EC00294610F007FF4FF027
:202B9000040A04F1440810224046314684F802A00DF033FE04F154091022484631460DF0D5
:202BB0002CFE04F11C073E6004F10A052E70E671267207206072CDF80080DFF800830222D8
:202BD00010200346414606F011FC102003224146CDF80090034606F009FC1020524641461E
:202BF0000097134606F002FC4FF0080B4FF0030905F12A00079005F17900089005F11E0072
:202C1000099005F15A000A9024350B9517E06078A28FE18FB4F84050B4F8423006280ED151
:202C3000ADF80A20ADF80C10ADF80E50BA48ADF8103014F0CBFB012002A90DF095F8A069E1
:202C5000B44A31464FF0FF3314F02CFF071CF6D0059606A80DF11A0105AA12F0B9FA002878
:202C700040F0C081BDF818102078102940F0B6819DF81A10884240F0B181059D29884FF63B
:202C9000FF728A4200F09F812B78A23B00F082812E3B40F0A381A978B046002900F03E81B8
:202CB000891E00F00D81491E012940F2D980891E00F09C80491E6FD0491E5CD0083900F0A6
:202CD0005981891E40F05C8194F83A30A888052BADF8080047D001208DF812008E4814F0AA
:202CF00075FB94F83A0001281ED004281CD003280DD002280BD00598C188ADF80A10018923
:202D1000ADF80C104189ADF80E10818927E0A08FE58FADF80A00B4F84030ADF80C50B4F829
:202D30004210ADF80E301AE0A08FE9888842D8BF081CADF80A002989E08F8842D8BF081CDA
:202D5000ADF80C006989B4F840008842D8BF081CADF80E00A989B4F84200884200DC084688
:202D7000ADF8100001E08DF81260AA49102002AA06F03CFB04E1A84814F028FB6B78002BB0
:202D900040F0FE80E88860822889A0826889E082614814F0F9F8F3E0AA88B649102006F035
:202DB00025FB0798414606220DF027FD6682A682E682A8792073584814F008FB964814F0BF
:202DD00005FB4FF001084FF6FF702379E08153B9A879082812BF84F801A005206070404624
:202DF00014F002F9CCE084F80190C9E06B787BBB291D07980A680260898881800623637082
:202E10006889E081E8896082288AA082688AE082E878E07294F83A00012818BF02280BD157
:202E30009A4910201F2206F0E1FA4FF47A7180B24143394811F0E2FD688900909249CDF8F7
:202E500004A0EA7810202D1D2B4606F0CFFA9AE06878312840F08B80E67084F801A092E0DF
:202E70006B78002B40F08380A878238A6178032818D0E07825794BB9012814BF2671E67065
:202E90000BE0C046A8150020F96F0100054304D07F48194611F0B2FD61780729DDD106201C
:202EB000607070E0062907D0E578002D08BF84F8019068D00220F3E70720F1E7E7660100FD
:202ED0006B78002B53D1EB78617893B902291DD007291BD0062902D12079012816D103291E
:202EF00014D06B4814F050F880B9012014F07CF80CE012F07FFC0246A07962490090089868
:202F100043460190102006F071FA68706D78002D2DD135E007000080701600206B7833BBFB
:202F30005C485749009002221020034606F05EFA59484A46524900901020034606F056FAA7
:202F5000ED1C099829680160A988012381802078637012F04FFC024601230A9D6079494939
:202F700000901020019506F041FAC0B258B184F801B008E0AA8841491020052306F036FAF0
:202F9000B8F1010F2AD1256A45B32D6835B36078A84723E06879132820D12889012808D1DF
:202FB000607B022805D11C4814F010FA12F076F914E036491020052206F018FA81B21648E0
:202FD00011F01CFD0AE06888C00B07D3334852462B4900901346102006F008FA059808B15A
:202FF00014F091F92579E078790830D355EA00032DD0204600788DB9E179257A8DF80810C0
:203010000B9A8DF8095013680DF10A052B609288AA8005E005160110941600208DF80890CE
:20303000617A8DF81010A17A8DF8111012F0E2FB1149024602AB102006F0D8F938B1256AA2
:2030500084F801B01DB12D680DB15846A847B80803D3134930460CF087FEF808FFF4EFAD0D
:20307000607B401E3FF4D3AD401E7FF4E8AD12F015F9E4E57D2B010059440110C1170110D5
:20309000B9BE000009450110CDBA0000F58401104C160020EC150020FC150020C41500206C
:2030B000E21500202DE9F84F012012F00FF801280ED1DFF8F874396800204871386810F0FD
:2030D00009FE04F0D5FC040003D1812014F0BAFC68E201206071DFF8D854DFF8D804417836
:2030F000491C41703968A07981F8A00040200DF0CFF92060287901281CBF002013F006FC68
:20311000E8682168DFF8B05400F5B060C860286801680A79032A1CBF002013F0F7FB286895
:20313000DFF898840168DFF898B401F10809062299F80000C0F3801084F82E0109F1020159
:2031500004F5947013F02CFD042209F10E0104F1240013F025FDD8F80000A67900F10C03DA
:20317000042209F10E0103EB461013F019FDD8F80000A37900EB4310032209F11201103017
:2031900013F00EFD04F12C0699F81500B070022209F1160104F1300013F002FD022209F1AA
:2031B000180104F1320013F0FBFC022209F11A0104F1340013F0F4FC30896084022209F1B5
:2031D0001C0104F1360013F0EBFCB078F18872894000B0704900B08840001201B080F1803C
:2031F000728189B2638C5B1C4800434392B2934200D231B99BF8000080210AF051F83B21B5
:20321000FEE004F12E01204613F00AF90520A081204613F027FB052209F11E0104F16100C9
:2032300013F0BEFC99F823004009307014F006FC60823A68E34F518A401A04F59771888129
:2032500004F1610199F82300DFF87C9300F01F00F073204610F04AFE29680A6800201071A9
:203270001C25A1793868694341F6210242520022A17969430144001D4A80A179694342503D
:2032900099F80200410609D5D049088841F20A4290420CBFCE48CF48C4F89C012046D4F8E9
:2032B0009C1188473968A37901F10E026B43D054A1793868694308440021C173C648017863
:2032D00081B1B08870B9002171730120208160812046D4F89C1188473968A37901F10E0236
:2032F0006B43D0543868A27900F10E016A43885C707394F8960108B913F008FBA179386819
:20331000DFF8D8A26943084494F896114A1E02740023A17938686943084400214174A2797D
:20333000396801F112006A4301F1140C8352A279D8F8000000EB42136A434CF80230A279DB
:203350006A431144A64A8A61DAF814100B78DA074CBF4FF0100C4FF0000C99074CBF202189
:2033700000215A074CBF402200221B0700F10803A07941EA0C014CBF4FF0800E4FF0000E98
:203390000A4340014EEA020242F00F021A54D8F80000A17900EB41100B224272D8F80010BB
:2033B000A07901EB401104228A728E4A1378D8F80000A179012B00EB411002D10121C172A8
:2033D00003E0DAF828104A78C272D8F80000A17900EB41101F220276D8F80010A07901EB36
:2033F000401100224A76A0790AF068FDA279D8F8001052018850A2795301C85820B907215C
:20341000204612F03AFFCDE07748016801EB021014F010FB744AA0791368D8F8001003EBF9
:2034300000130A1D40011350081DA27952018058F063A07940010958716404219BF8000098
:2034500009F02EFF644BB2881978901C11B10AB9F088801C618A94F806B041434FF4C87249
:2034700005FB0BFBB1FBF2F1491CA061616140F6C41C23683A68CDF800B002F1080ED3F8F3
:203490000CB00CFB00B0411A0098A1F5A8614EF8001002F10800A17969434058986002F17D
:2034B0000C01A07968430C32095C01F0EF011154A0793968684301F10C020C31125C02F040
:2034D0007F020A54A0793968684301F10C020C31125C02F0F00242F002020A54A1793868BB
:2034F00069430844417B01F0F00141F0010141733868A27900F108016A438858216808610B
:203510006369D8F80000A17996F802E05B0000F1140249010CFB0E3303F5F6635350A17973
:2035300000EB4110C27C02F0F00242F00402C274D8F80010A079DAF8303001EB4012F088CE
:203550000CFB00F61868301AA0F51670D061A27901EB4210C17E01F0F00141F00401C17661
:20357000A17938684D4321684019486099F80100810614D504F59771488F1B2804BF888F70
:203590001B2808D1C88FB0F5A47F04BFB4F86E11B1F5A47F03D0142120460EF06DFA1349FA
:2035B00007200870BDE8F14F01F06AB9104F0020B44D0020684E0020F44B00207009001104
:2035D0006E4F00206C090011882B0020504F0020A3250100712E0100784E00200C940100F6
:2035F0005C4D0020734F00208C4E00206F4F00202DE9F843040014D1002013F087F910E06B
:2036100020460FF087FA012808D065E08A0740F1548101F0FD0101700020B07120460FF0D1
:20363000EDF804F16605687D002855D0697CDFF8A494022904F1EC0704F59E7804F5B076CE
:2036500004F5C67035D0042949D005295CD0062900F08A800729D3D0092900F0EC800B29C8
:2036700000F0C1800C2900F008810D2900F0D0800E2900F0EA800F2900F02881102900F05A
:203690004281112900F05C81122900F00E81142900F08781162900F05A81172900F0758131
:2036B000FC2919D0FD2900F09581FE2900F09B81A2E7297C012909D199F80300002815D0BA
:2036D0001621204612F0D9FD012006E020460EF0F0FD2874E88A28830020BDE8F283297C75
:2036F000012940F0948199F80200002800F0E580FC21204611F00EFAA07904F1B80204F1F2
:20371000B00114F093F98CE7297C01290FD199F8020020B184F89410002038607860B87AF0
:20373000012868D10621204611F0F4F979E704F1E7063078012809D1204611F0CFF8012858
:20375000CAD10020B87201202874C5E770780028C2D004F1C70204F1A00104F1D70014F045
:2037700061F9012030705CE7297C012940F0538199F8020000283ED0618CE18320460FF089
:203790003DF801202870204610F06EFB0120A871397A787C012900F010000FD148B1002058
:2037B00088F80500D8F8001098F8060049080EF067FAA079002114F031F90EE040B1D8F837
:2037D0000020C54804F5A1735208214613F02AFDA0790122002114F01DF9002038723873C8
:2037F000F872B8721DE7287C012805D1F97A012908BFFC2197D060E020460EF071F901285F
:20381000A3D10020F87284F894000120287408E7297C012940F0038199F80200002809D0C7
:20383000002184F8941001202870204610F01CFB0120A87188E0297C012940F0F48099F85B
:203850000200D0B3618CE183E8E6287C012840F0EE80387C022804F1FD0204D1A179002068
:2038700014F0D4F8DAE6032840F0EA80A1791A2014F0CCF800203874D0E6287C012804F282
:203890000D1140F0E8800B78012B04F5897240F0E8804878012807D153880093002013883D
:2038B000CA78A17914F0AEF8B8E6297C012940F0E78099F802000028F6D1298B481E2883A7
:2038D00080B200287FF408AF2221FAE6287C012840F0DA8098F80910012902D130780F2855
:2038F0001BE098F80800012826D1002188F80810288D000900901A20AA8CEB8CA1795208A3
:2039100014F07CF88AE6287C012840F0C18098F80910012910D1307810281CBF002012F0E0
:20393000F5FF002088F80900288D00090090AA8CEB8CA1797078E2E7287F0028E2D1BCE7EF
:20395000297C012940F0A88099F80300F5E7297C012940F0A580017B4A061DD4CA0709D530
:2039700001F0FE0101730023A179707800220AF0EFFD53E68A0740F1988001F0FD01017330
:203990000023A17900221A20F1E7297C012940F09980027B510690D5017B01F0BF010173B4
:2039B0003CE6297C012940F08F8001788A067FF52DAE01F0DF010A0701700AD501F0F70154
:2039D0000170F08B0090738BB28B318BA07914F03DF821E6A97E204611F09CF815E70020CD
:2039F00012F094FF78E6A87E0F28F8D1FC21204611F090F8B8F812000090B8F81030B8F8A0
:203A10000E20B8F80C10A07914F028F864E620460BF0E4FB5DE620460FF026F959E6204669
:203A300010F006FC55E620460EF0F2FA51E620460DF014FE2874E88A2883012038744BE686
:203A5000288B401E288380B20028F8D1A179222013F0DCFF38E70120887020460DF048FA60
:203A700037E6288B401E288380B20028E7D15088009022201388CA78A17913F0C3FF23E7DB
:203A900020460FF031FB24E620460AF0B1FD20E620460AF0FDFD1CE620460EF0ABFB18E603
:203AB000162120460AF066FB13E6288B401E288380B20028C3D1A1790023002222200AF0C0
:203AD00047FD01E71721ECE7142120460CF05CFAFFE500BF5C4D00208D0E01002DE9F84F4D
:203AF000DFF82844A178FF2904BF002012F00EFFA07813F067F9044604F1680604F5C975E1
:203B10003168086804F1900710B10022E28310E0B17B002904BFB07E00280AD139780029A5
:203B300004BF2878002804D1217F012904BF608CE0832189E08B4118491C6181204612F01C
:203B50008FFC01281EBFDFF8C8030178012904D120890022401CE2836081B07E01280CD109
:203B7000B28B6189208913F045FF30B121896289481C82422AD0B28B1FE0387801280CD194
:203B90007A886189208913F035FF30B121896289481C82421AD07A880FE02878012815D121
:203BB0006A886189208913F025FF00281FBF2189481C6289824209D06A88824206D0501EB3
:203BD000608180B213F012FF401EE0832878012801BF69882089401C814207D16A792A7155
:203BF000002028701346A1790AF0B2FC04F59A71087920B120890021401CE183608104F12C
:203C10002E07B07E012801BFB08B2189491C884238D1608104F18601204612F001FCB08C2D
:203C30006189608400202077E083E0894118A181B08B218913F0DAFE8046B988308C728C27
:203C500001FB0808F08C8A4204BF3989884202BFB18CFB88994207D000090090B38CA1798C
:203C70005208002013F0CAFEB07F3870708CB880B08CF880F08C3881204612F0F3FD022081
:203C9000B07601E0B7F80480E28BDFF88892501C00FB08F140F6C41808FB01F000902368FB
:203CB000D3F80CC06044DFF870C2D860DCF800E09A489EF800A003884FEA9A1ABAF1030F77
:203CD00013D199F80FC05FEACC7E48BF00230CD45B1C9BB2012B11BFB4F812C004F59A7CA6
:203CF000BCF806C00CF2DC5C01E0B4F812C00CFB01FC4FF4C87EBCFBFEFCDFF824A20CF1CD
:203D1000010CC4F814C0038084F820204FF01C0BA379A1610BFB03F3DAF80010226801F1D9
:203D3000080001F1080CC058D3681061A0790BFB00FE60691B1A4CF80E3001F10800A379EE
:203D50000BFB03F3C058906001F10C02A0790BFB00F00C31125C02F0F00242F002020A541D
:203D7000DAF80000A279811C0BFB02F200208852287908B912F0CAFDDAF80000A27900F1AC
:203D9000100128790BFB02F240088854A079DAF800100BFB00F00844002141742879042863
:203DB00014D1A079DAF800100BFB00F001F110022B7A125C103142EA83020A54A179DAF8CA
:203DD00000000BFB01F1084420214174DAF80000A27900F112010BFB02F200238B52514914
:203DF000A2790968520101F11403D4F814C09B5801F1140E03EB4C034EF80230B27E022A13
:203E10000AD1A279520101F114033E789B5808FB063301F11406B35099F80F20D30749D594
:203E3000A2790BFB02F200F1080300F108069B58A3F5A863B3500830A27923680BFB02F2F1
:203E500082589A600098121A1A6101F11402A079400101F11403125802F5F6621A50287910
:203E7000042807D1A079400101F11402125802F5B0621A5001F11400A27952018058C4F8E7
:203E9000340101F11C03284AB888166BA57908FB00F730686D01381AA0F516705851A37949
:203EB00001EB431021490D78012D0EBF0122916A4A7819E02879A37904280CBF4FF44B604E
:203ED0004FF4E66001F114025B01D258101ABA8808FB02F2A2F516729042D2D30821204633
:203EF00012F0CBF901200FE0C272A179DAF800000F4A0BFB01F10844216848600720107047
:203F1000204610F054FA0020BDE8F28F684E0020784F00205C4D0020084F002084090011FC
:203F30006C090011700900110C940100734F00206F4F00202DE9FE43BF4C0F460646F80BFA
:203F500080F05081B80880F03D81E07ADFF8F492B90F80F0B680607A002840F09680380974
:203F7000C0F09580A07A20B10020A072052011F02BF800254FF001086570284684F8078053
:203F900004F0ABFBAD4904F174002A4613F000FA207901281AD16079C0B9DFF8A482D8F8DF
:203FB000000000284CD048460068006B804761694346401A000BA0611968E2698018B0EBCD
:203FD000C11F98BFE0613BD9E56101E084F80480DFF87482A8F115000068000A30D340F6F8
:203FF0000900A08694F8410000F0F00040F0010084F84100E58694F8400000F0F00084F854
:204010004000A56313F0BEF908F6FF7211686FF0020321F00201116004F13401C8F8FB3F99
:204030008A4AC8F8EB1F11688908FCD3C8F8FB3FD8F8FF1F41F00201C8F8FF1F13F0D2FC2E
:20405000656110F011FA82480560022010F0BCFF112009F0E5F9307C10B90E2009F0E0F9F6
:20407000E5712572A07818B906F1380013F0A0F9784813F041F878490878F8B10D7004F137
:20409000D000042113F09CF918E0380914D2B80BC0F0C98004F1240013F084F9061C08D015
:2040B000706830B17568F068B6F91C1000222023A84727F40057B6E00020607227F00807B3
:2040D000B1E020B1042010F07FFF0020E072B168088840F602054FF0000885420AD0B0F5E7
:2040F000C15F07D00A8B4FF61F60104040F43470088306E00A8A4FF61F60104040F4347047
:2041100008826069E0B1D9F85400016804208847B0B1D9F80000006B80476169814226BF54
:20413000401A401E401A000BF060708AF168401840F6C411F06081422CBFB0F5FA7FF160DF
:2041500094F8410010F00F0F0BD1708CED1D854207D1B56930466FF4807142464FF00073C1
:20417000A8473E4904F17400424613F011F9607958B10220ADF80000684611F047FD84F8A3
:204190000580BDF80800A4F8700001206070E078401CE07004F1200084F8068013F002F9B7
:2041B000002808BF47F0020702D0192013F0EEF87569414630464FF080630A46A84727F079
:2041D000005730E004F12C05284613F0EBF807F0E7FE284613F0E6F827F0020708B147F0B3
:2041F000020720E013F0CEF8014604F1280013F0D9F80646B569A80810D27EB125EA050066
:20421000B061084613F0EEFB706850B12A46F068B6F91C1075680023A84702E0084613F0A5
:20423000E1FB27F4804727B104F1D000394613F0C7F8BDE8FE83C046E818002079600100AC
:20425000680900118C010010150004401010044000000460A9C0000064090011ADB60000C4
:20427000BB482DE9F84F0025BA4CB849056094F8E200002800F06581012800F02F81B64E04
:2042900002283CD0032840F05C8151F8250CD4F8B8100029A0F5C060C4F8D400B8BF494222
:2042B0000028B8BF4042814226DA4FF08057D7F8A4014568B4F8BC0030214FF47F420823EB
:2042D00000903046A847D7F8A4014568B4F8C00004214FF4F802122300903046A847D7F8F1
:2042F000A401B4F8D070456820214FF440620A2330460097A847012584F8D8501CE151F811
:20431000258C12F00BFF2F4600B901273946934F38680028FCD0B146012609F10409D9F88F
:204330002CA03E6009B112F0FFFECAF30720C4F8BC0012F0F3FEAA4600B9B2463B68002B8C
:20435000FCD0D9F800B0BAF1000F3E6001D012F0EBFECBF38440C4F8C00012F0DFFEAA461F
:2043700000B9B2463B68002BFCD0D9F81C90BAF1000F3E6001D012F0D7FEC9F38120C4F84C
:20439000D000B8F5C061C4F8B81000F09C8094F8D80068B9C4F8D410D4F8C000C4F8C800AA
:2043B000D4F8BC70C4F8C470D4F8D030C4F8CC30D4F8D410D4F8BC30002954BF02206FF05C
:2043D000010004F1C802176801EB41014018411000EB917107EBA1001060D4F8C810C4F867
:2043F000C43000291CDD1E293CDDD4F8CC0030B93429B4BF15391E21C4F8C81025E02A296D
:20441000BABFD4F8C8000B381E20C4F8C800D4F8C4003F28B4BF401C3F20C4F8C4001FE0D6
:20443000D4F8CC00032812D011F10B0FC6BFD4F8C8000B30301CC4F8C800D4F8C4000028CF
:20445000C4BF401E051CC4F8C450032508E011F1150FC6BFD4F8C8001530301CC4F8C80016
:20447000C4F8CC504FF08057D7F8A401B4F8C43030214FF47F424568374800930823A847FC
:20449000D7F8A40104214FF400321123456832480096A847B4F8C860D7F8A40104214FF46E
:2044B000F802122345682C480096A847D7F8A40120214FF440620A23B4F8CC60456826485D
:2044D0000096A84701E084F8D85040F2FF50404502D8801C40452FD2082030E051F8251CFE
:2044F0001F4F4BF2F5204843060A3868C0F3814001280CD11B480068006880470FF096FFA9
:2045100012F018FE3111C010484306EBE03694F8E50030B91448006820F07F4080194608FB
:2045300001E084F8E5501148310C0660012741600F4D8760287808B90B2000E0052084F8C4
:20455000E40004F08BFEBDE8F88FC0462D400C402C500C408023002000A00C4000800C40BC
:20457000B43F0050EC010010102009403C600C40369301002DE9F04F0D46E80789B00BD510
:2045900012F012FD28B100218160AE48006800B1804785F0010052E1A80710D50020069056
:2045B0000021049000230290009005910393019101223C2013F012FA85F002003FE11E24CC
:2045D0006807DFF88482A14F40F19B800020079082469F498878FF2804BF002012F096F941
:2045F000386890F8A00012F0EDFB06463868C07A96F82EB1022818BF032806F5947906D15B
:2046100008F10D0013F0E6F908B908F1070A4946584613F0DBF988B33868807A002818BFFF
:20463000012804D14146484611F015F804E04A46594640460DF0BEFBFF283DD0604383465A
:2046500008EB0B0406224946E01D12F0A9FA18F80B0040F0020BE01D079006223868817E3C
:2046700001F0010186F82E1104F10109386800F1140106F5947012F093FA1DE0494658461D
:2046900012F053FBC0B14A46594640460DF092FBFF2811D04443444404F10D0013F09AF95B
:2046B00040B904F10D0013F095F9002804BF607F012801D14BF0020B06F12C005B46017814
:2046D0000691418909090591728C079904920122C088029140080390CDF804A0CDF80090F6
:2046F0000020B17913F07AF9D6F89C0159498842B0790CBF002101210BF026FA85F0040048
:204710009DE0280610D5002006900021049000230290009005910393019101223B2013F00A
:204730005DF985F080008AE0E8043CD508F1070108F10D0013F046F938684179012923D1F6
:20475000017A012918BF04291ED1C17A022918BF032919D1817E00F1140240460DF02AFBB0
:20477000FF2811D04443444404F10D0013F032F950B9E11D04F10D0013F024F938680622F1
:20479000E11D143012F00CFA334934484A6800784FF480510FF004FB10B18E2013F00EF912
:2047B00085F480504BE0A80505D512F0B7FC2C4901200860FEE7690504D505F070FF85F432
:2047D00080603CE0680405D5812013F0F7F885F4804034E0A80431D5224C206810B100201E
:2047F00012F094F84FF0FF3020600DF0D3FC1E4C216851F8202F684690471C48C16A026B55
:204810002468009101920021029100F134014A6809781368806A03938DF81010ADF8120074
:204830006B46D4F80080124A12491348C0471349086004F0ABFA85F4005000E0002009B073
:20485000BDE8F08F204F002000000011104F0020684E0020A3250100784E00206E4F0020A3
:20487000FC002043044F0020F04E002098270020642B0020002A002088490020EC4E0020D5
:204890002DE9F04FB64D686885B0019020B905B0BDE8F04F13F08EB80178DFF8C882B24EC5
:2048B000DFF8C892DFF8C8A201291CBF0229042946F2A81741F64C5B05D0402918BF802986
:2048D00000F09A8043E112F05FFC0028FAD00198007806F0A9F80090446814B9002012F078
:2048F00015F89AF80100002860D002F0DFFA12F069FA02900168009801914F680CF0E4FEC6
:20491000022827D000990A78012ADBD1994B19680A7A19F80230337018B913F047F85844F6
:20493000A0602069C17E01F0EF01C1762069C17E41F08001C1762069C17E01F0F00141F0FB
:204950000201C1768C48B96841182069C16101210098A0E001980178802913D10822874842
:2049700032700178012903D09AF80100012803DD78690121C17213E0D8F828107A690878DF
:20499000D0720DE07D49072030700A787869012A02D10123C37203E0D8F828104A78C272B0
:2049B0000298817901988AF80210CBE00098002888D00199009A0078914205D101281CBF0A
:2049D000002011F0A3FF15E0012840F0C080694801680A7A19F80200307012F0E7FF3918EC
:2049F000A06812F0DFFF18B912F0E0FF5844A0600120A8700098A5E09AF8010000287DD013
:204A100002F054FA12F0DEF904462068029047689AF8020012F0D6F9039012F0BBFB10F0AA
:204A3000070F3DD0A87805F0FFFF019041680198009102990CF048FE022831D001990A78A8
:204A5000012A2AD14B4B19680A7A19F80230337028B912F0ABFF83440098C0F808B00099AA
:204A70000869C17E01F0EF01C17600980069C17E41F08001C17600980069C17E01F0F00113
:204A900041F00201C176009AB9683B4841181069C16101210198A97054E0002011F036FF0B
:204AB0000398A04228D002980178802913D10822324832700178012903D09AF80100012859
:204AD00003DD78690121C17213E0D8F828107A690878D0720DE02949072030700A78786987
:204AF000012A02D10123C37203E0D8F828104A78C272A0798AF80200029823E012F04AFBED
:204B100010F0070F29D0A87805F08EFF04462078D4F80480012820D116490A68107A19F81C
:204B30000010317012F042FF3918D8F8080012F039FF20B912F03AFF5844C8F80800012075
:204B5000A870204605B0BDE8F04F08F047B905B0BDE8F04F002011F0D9BE05B0BDE8F08F0C
:204B7000480900110C9401006F4F0020289A0110684E0020104F0020F0D8FFFF734F002074
:204B90002DE9FE4F0F46994C0168E16241688068E0609748A16080479648E16A0160A168B1
:204BB000DFF870B24160E168DFF8648281609249002FA246C16069D03D68E8788DF8080086
:204BD00028798DF8090002A812F0E8FEA86808B18A490160E86808B189490160894C287856
:204BF000207068786070A878BE68A0703178E1707368636072696261B168A160F168E16025
:204C1000316921612E697B68A6621868A0616869E062A8692063287F84F834002A6AA263CE
:204C3000786886681EB9002011F070FE00E026627868C06818B9002011F068FE00E06062C6
:204C50007868406818B9002011F060FE00E0E0612869A062F86881680E6806B96B4E6A49CE
:204C70004FF001094E60C66881F801902EB9002011F04CFEF868454601E045462E60006856
:204C90005C46FE68A0617068E06106E0002011F03DFE4FF001095C46454628685E49466845
:204CB000621C04F114035020B04710B1286880688047DAF808008047594F0026834669460C
:204CD0007E7056483E7004222061304610F0FEFA0098B0F5801F0CD020B910F0EBFE06F005
:204CF00037FB08E00FF004FB12F094F80420788001E010F0DFFE4B4FB0462868C7F80880BD
:204D10008069A660804778604748468080F80090142012F071F9FF211422A06212F05EFB45
:204D3000E01CFF21022212F059FB142012F064F93E49086008681422314612F04FFB30466C
:204D5000FBF738FE484610F0F5F939480188FF2906D1022101807822001D314612F03EFB89
:204D7000032012F017FE042012F010FE052012F009FE062012F002FE07200DF053FB2D4E72
:204D90000820307006F1400012F0F4FD0DF012FE363605200A21324611F09DFC38B14046C7
:204DB000C0F10901401C06F8011B0A28F8DB2F68214909200DF10A0201AB7D680870102040
:204DD0004146A847A06ADAF80C10E2690A270A309DF80A307F1E00F8013BF9D1921E5846E7
:204DF000E261884703F0C0FABDE8FE8F5025002041490010F8440020BC7A01009159010005
:204E1000F16A010098270020942A002007EF0000442B00209C280020E5600100816B0100CD
:204E3000402B00203C0900113C2B00207C09001188260020EC2000208F0900112DE9F04F6C
:204E50000546A64CA878216AADF11C0D801F00F03E81C01E00F02981401E78D0401E56D0A3
:204E7000C01E4AD0401E40F03581207A617A00283FD1607800283BD0A88812F077FD071C65
:204E900000F02881A87A40080AD3787940B1E968890A05D2B91D01AA09F016FA0A2825D0D4
:204EB000207B022802D1A87A00091FD36078AE887979C0B1607CB0B90120607405F1080282
:204ED000304604F001F9002840F00481206A002800F000814368002B00F0FC800021304685
:204EF0000A469847F6E00521304603E0032100E00521A88812F036FDECE0002900F0EA8040
:204F10004B68002B00F0E6806A780221CBE012F053F8002800F0DE80276A0FB1386868B9C8
:204F3000286900280CBFE0690120698912F016FD002800F0CF8068890121DBE7286900900F
:204F50003C6869892A7B6B7BE81CA047C2E068784FF00008002840F09580A8794008C0F0E6
:204F70009180606A002840F08D8001A841460E2212F034FAA88812F0F9FC061C00F0AA80EE
:204F90006869002859D081464146062209F1110011F044FDC24620B34846062211F03EFD4F
:204FB000D8B999F8100009F1110B474605907F1C5846FFB28BF8007010F092FD0A280BDAF4
:204FD000474B059A0101A1EB4001C9188879824202D1002FEBD100E01FB947464FF0010ACE
:204FF0006F61BAF1000F09D109F1110101A8062211F0D6FD99F810008DF80A00BAF1010FA1
:205010001BD06F69CFB1387C07F1110106228DF80A0001A811F0C4FD06F10C00B11D062264
:2050300011F0BEFDB01D07F11101062211F0B8FD387C40F00200707107E07079B11D062262
:205050008DF80A0001A811F0ABFDA9799DF81120C1F3800010438DF81100080905D39DF8DC
:20507000110040F008008DF8110001A8294602F0E7FD28B92078022108F012F940462AE024
:205090004FF0150812F0B0F8206A18B343680BB3A8886A7801219847B8F1000F1AD0206AFD
:2050B000032142464368A8881BE7E878291D002209F00AF90A280DDA410001EB800005F1D7
:2050D0000C0225300421C0B206F0EEFE02E0A8880DF04CFD012007B0BDE8F08FEC20002064
:2050F000DE2100207CB5A34D144602460026A2F58062192A1BD8DFE812F031012A012201A0
:20511000190111010C010401FD00F300E700DF00D700C500B9001A001A00970081007A0070
:2051300065005C00520047003A0030002500282880F29A80022940F09780218812F00AFC77
:20515000064614E1012940F011812178284601750121C17411F040FE09E1012940F0068134
:20517000002C00F0038128461230024614E0102940F0FC80002C00F0F98028465C301022ED
:20519000214611F00DFDF2E0012940F0EF80002C00F0EC802A46921D21781046E4E0262949
:2051B00040F0E480002C00F0E180284626226C30E6E7012940F0DA80002C00F0D78028461A
:2051D000401D9CE0602900D144B9012940F0CE80002C00F0CB8028460D3090E005F19200DD
:2051F0002146602211F0DCFC01206873BFE0012940F0BC80207812F0A9FBB8E0012940F07C
:20521000B5802178022900F3B180284600F10C0211702178022918BF301C02D11021C17255
:20523000012012F08FFBA2E0072940F09F80611C6846062211F094FB20786946324609F015
:2052500043F804460A2C0FDA12F078FB38B9204605F05EFF10F0DEFD0DF0ACFB87E0284628
:2052700001212C30015582E0022680E001297DD12A462178907B0028917378D1207801289E
:2052900075D1E9E72846027B01296FD1022A04D02178072901DB102904DD022A66D12178D8
:2052B000102963D1C17262E001295FD121780A295CDA2846093057E0012957D121780229AC
:2052D00054DA284608304FE000294FD112F036FB10B911F040FDBDE7284601210F3043E0A2
:2052F000042943D12168244888423FD328461C3001603CE0012939D12B4603F10A00217819
:2053100032E0012932D1217802292FDA2846C01D2AE010292AD128464C3030E7012925D1C7
:205330002178022922DA2846001D1DE001291DD1217804291ADC2846C01C02462DE7012971
:2053500014D12178022911DA2846821C25E702290CD1218828461630018008E0012905D1C3
:205370002178022902DC0548017000E0182630467CBDC046EC2000203F420F00ED20002001
:205390002DE9FC41A0F2013714468846022F40F232819B4E9C493F1F0F2F04D9143F4CD0EC
:2053B000BF1E1CD011E0DFE817F0CF00C9000D01FA00C100B9002601AF00A700100010009E
:2053D0009D008F007F0074006600282880F21381B8F1020F40F00F818849238807E1B8F15B
:2053F000010F40F00881F078012800F00481324620781179107189B9002800F0FC80507815
:20541000012800F0B580042800F0B280062800F0AF80052800F0AC80BDE8FC812078002868
:2054300040F0E9805078032800F0AF80072800F0AC80052840F0DF80A7E0B8F1010F40F03A
:20545000DA802078012840F0D68006F1EC0011F09BFD002840F0CF803446002004F13A01AE
:205470000AF082FC002840F0C68004F1C80011F0ADFFBDE8FC81B8F1020F40F0BC802088AC
:205490000A28C0F2B880B0F5486F00F3B4808E1C17E0B8F1020F40F0AE802088B0F5FA7FDE
:2054B00080F2A9800E460CE0B8F1020F40F0A38020880628C0F29F80B0F5486F00F39B80E3
:2054D0003E363080BDE8FC81B8F1020F40F0938020880628C0F28F80B0F5486F00F38B8088
:2054F0003C36EEE7B8F1010F40F085802078062880F28180454E0EE0B8F1010F7BD1207810
:20551000042878DA0A3606E0B8F1010F73D12078082870DA09363070BDE8FC81B8F1010F0E
:2055300069D12078042866DA0836F4E7B8F1010F61D1207804285EDCF61DECE7B8F1020F7B
:2055500059D120881036BCE7B8F1010F53D13079012850D032462078D178D07069B90028CE
:2055700049D05078012803D0042818BF052842D1012011F039FDBDE8FC81207800283AD1B6
:205590005078022818BF052835D1107810F032F91C490246102003F029FFBDE8FC8106F13B
:2055B000830500211F2228460BF027F921464246284609F05BF944463078B47110F01AF954
:2055D000002311E006F1640500211F2228460BF014F921464246284609F048F944463078A6
:2055F000747110F007F901230094094901950246102003F0FBFEBDE8FC81C046BD84011038
:20561000A815002099450110E8150020E2150020094501102DE9F04F9E4C20780E46F10BF4
:20563000ADF11C0DC9036ED1B0085ED2606AA16A720807D2F00828BF86F0040680F0258103
:20565000002023E1858861B904F11800924A00904FF6FF710223012012F06CF90146A162CA
:2056700021B304A800900027019702230293FF220392228B28460DF1120301F00FFB58B9A1
:205690009DF813009DF81220A16A12EB002204D0498928460EF0A6FBA16A228B08463B4627
:2056B0004FF6FF7112F042F90146A162206A00291CBF012186F001061FD168B14368616AF2
:2056D0005BB18888002201219847206A676A4368B888032100229847616A888811F086FBB3
:2056F00011F0F8F886F00106CFE00020014602F0A7FA30B1012186F00206207807F0D0FDA6
:20571000C3E00221F7E709F08BFC5FEA000800F0BA80054628784FF0010AB03812D0401E7D
:2057300003D01F3800F0A580A7E02879002840F0A480B8F80200B8F80610B8F808200EF028
:2057500051FB9DE02879401E41D0083803D0743800F0828087E068781A2879D06888814626
:2057700011F03CFD801E18D0401E7CD1288901280AD16889032807D1E9688A7848460421FF
:205790000DF002FD024600E01822206A00286AD04368002B67D0042116E02989688852464D
:2057B0000129814609D16989032906D1E9688F781FB910210DF0E8FC0246206A002852D0BB
:2057D0004368002B4FD00521484698474BE02B7A688805F10807082B814639D111F0FEFC6D
:2057F000801E12D0401E33D1287B0A2818BF122205D16889042100220DF0C6FC0246206A38
:2058100030B3436823B3042120E07888102100220DF0BAFC237D834693B1484612F0A6F80E
:2058300070B11E490B784BB94179831D524601F001010846194611F0D7F801E05046E0741C
:20585000206A28B143681BB105215A4678889847688811F0CBFA06E06A8811F0BFFC014628
:2058700010460DF0B1FE297905F1080012F016F903E04046FFF7E2FA8246BAF1000F02D0D6
:20589000284610F04DFE86F40046B0B207B0BDE8F08FC046EC200020309001005A4F002086
:2058B0002DE9FC41884C894A2678894F894D8A490D2E30464FF4A0534CD8DFE816F00301E3
:2058D0000E000E000E000E00FB00FB006800FB00A700A700D800D800DF008049176041F2D7
:2058F00004464C887E4FB4421CBFB1F81AE0B6450BD0B1F83280B0451CBF41F20A46B442BF
:2059100003D0B64518BFB04502D12E80176076E0022C744E2C8035D94FF48067E41B1AD0D2
:20593000241F012C1DD94FF47F77E41B1BD04FF44067E41B0FD0A41E012C0CD9241F0AD015
:20595000641E012C0DD940F2F937E41B012C19D9241F08D0AEE0022814BF2B80624E1660AB
:205970004DE0624EFBE762480468257A012D05D141F20240488048834886F0E74B804B8359
:205990004B86ECE7002010F0C1FF832096E059488178FF291ED01C2041435748176040F2A2
:2059B00004460068841C645A2C80A41B012C534D10D94FF47F76A41B15D00A3C012C14D96A
:2059D00040F6F636A41B032C84BF641F012C0ED9A41E012C76D940F2FD36A41B07D0641ED2
:2059F000012C02D905E041F20143801C4352156005E0002010F08AFF852012F023F8BDE898
:205A1000FC413F480078012107F04ABC4A882A8040F20443D21A55D040F6FC73D21A15D09F
:205A3000083A4FD04FF47F73D21A22D1354C364A2568364800680023CDE9002355F8086FAD
:205A5000334B0222B047334908803BE0092810D131490A68508960B1304908780CF0FAFEA9
:205A70000021002011F05EFF002020702AE048882880002010F04AFF85201FE04A882A80BC
:205A9000022A0DD940F20440121A1BD040F6FC70121A05D0083A15D04FF47F70121AE8D176
:205AB000887B801CC0B2B528A8BF662088730020488007E0002010F029FF8420BDE8F64169
:205AD00011F0C0BFBDE8F3816F4F0020204F00202F730100504F00200C090011204A00209E
:205AF000B5300000C5B800003DD90000755B0110104F0020684E00206C0900119D6A00005B
:205B10006E4F0020F04E002002000080EC4E002081420100424F0020A02B0020714F00201E
:205B300010B50B7884074CBF43F0020303F0FD0304064CBF43F0800303F07F0304074CBFF6
:205B500043F0080303F0F70384064CBF43F0200303F0DF0310F0AA0F0B7004D0107840F08A
:205B70000C00107010BD18B9117801F0F301117010BDF8B50F4600263878022814461D4670
:205B900067D1786801784278069801EB022189B2002818BFB1F5285F01D00B20F2BD4FF4A8
:205BB0002850091A0AD0491E1ED0491E4BD0491E22D0491E28D0C53941D04AE0F86811F037
:205BD0000FFC069B079980B2C21A8A42ACBF0846C01A80B2C118162904DA28800246F86884
:205BF000C1180DE00D2636E0F8680088022129802070000A60702EE0062028800622F96803
:205C1000204610F0CDFF26E0F868B0B108212980018821700188090A61704188A17041887F
:205C3000090AE170818821718188090A6171C188A171C088000AE0710DE029800BE04A4856
:205C50000178CA0705D401202880F8680178217001E02E8001263046F2BD2DE9F8460E465B
:205C7000814630780024022817469A4678D17068017842783C4D01EB022189B24FF4285038
:205C9000091A08D0491E30D0491E55D0491E3FD0C63960D064E0F06811F0A2FB089980B254
:205CB000884206D308460AEB0001162903DB0D2457E0072455E0F36852463946184410F03A
:205CD0006FFF08985044ADF8200000210898F368C0F11602184411F081FB686800281CBFBC
:205CF0000268002A3DD0002123E0089888BBBAF1020FDCD139787878F26801EB00211180EA
:205D1000686800281CBF0268002A2AD0012110E00898F0B9BAF1060FC9D1F068062239465E
:205D300010F03EFF686800281CBF0268002A18D003214846904714E0089850B9BAF1010FE6
:205D5000B5D13878002813BF0128F1680870802407E00B2405E02878C10758BF032400D5EF
:205D700001242046BDE8F286B42A00202DE9F04F8246DAF800600C465FEA0208ADF11C0DB2
:205D900014BF00214FF0FF3106F14800834611F08EF8002818BF0B2040F006810025657026
:205DB0008448F460B8F1010F057004D065700220F4600FF003FB2078012840F2AB80801EAD
:205DD000012868D9801E012833D9801E012800F2DF8011F0D7FA06904FF0805000F5EE778D
:205DF000D0F8DC01A378466A009321782846062908BF0120019001200290A068228AE16831
:205E10006368B0478146069811F0ECFDB9F1000F40F0C080B8F1000F02D010F085FE02E049
:205E300050460FF0A7FF002800F0A4803868806A2AE011F0A7FA06904FF0805000F5EE77A6
:205E5000D0F8DC01012306680093A168A27860682478AC46042C08BF9C466346B0478146AF
:205E7000069811F0BFFDB9F1000F40F09380B8F1000F02D010F058FE02E050460FF07AFFEB
:205E9000002877D03868406880474949C1F8B0510D6081467EE011F075FA06904FF0805081
:205EB00000F5EE76D0F8DC01E38A87690093E0680190208B0290A0780390207D04900121D0
:205ED000059122782846022A08BF081CE1786268A368B8478146069811F084FDB9F1000F30
:205EF00058D1B8F1000F02D010F01EFE02E050460FF040FF00283DD03068006A80475FEAC6
:205F1000000947D13068C569A168E28A2369E078A847BEE711F036FA06904FF0805000F5D2
:205F3000EE76D0F8DC01E38AC7680093E0680190208B0290A0780390207D29460490012097
:205F50000590257805B9014608466268A368E178B8478146069811F045FDB9F1000F19D134
:205F7000B8F1000F02D010F0DFFD02E050460FF001FF08B9142017E03068406980475FEAF7
:205F9000000907D1306802692169E078904780E74FF0FF39B8F1010F02D002200FF014F8BE
:205FB000584611F005FA484607B0BDE8F08FC046504502408E0900112DE9F04FDFF80CB25B
:205FD0009BF80000002885B004D0401E032804D9801F012840F2F780EFE07D4DDFF8F48131
:205FF0002868DFF8F49103687C4E03F10807062207F1080103A810F0D3FD0622B91C01A823
:2060100010F0CEFD3878C0F380118DF800101E24C10900F00F02032A39D16879C0F38000C4
:20603000814233D12969062203A810F069FA00282CD09DF8000001A911F0C8FC002825D07C
:20605000314601A80FF007FB0746FF2F1ED0D9F80000807A6743002818BF02280BD0012804
:2060700018BF032812D1701CF25DC119404611F055FC10280AD0F41901AAE11D40460BF055
:20609000F8FF062201A9E01D10F08AFD90E000F00F00052840F097806879C0F380008142E9
:2060B000F4D12969062203A810F02AFA0028EDD09DF800003F7801A911F088FC7F0940F268
:2060D000024A88B3314601A80FF0C5FA8346BBF1FF0F6DD0D9F80000807A002804FB0BF19D
:2060F00018BF012800910CD0022818BF03285FD10846711C325C0144404611F00FFC10284F
:2061100056D0504611F006FC009806EB000A01AA0AF1070140460BF0ACFF062201A90AF176
:20613000070010F03DFD1CE09BF8000002283FD19DF8001001AA30460BF03CFE8346BBF1D5
:20615000FF0F35D004FB0BF03118487F012805D070BB01F10D0011F03DFC48B3504611F01E
:20617000D9FB04FB0BF4D9F80010305D88760622701C0119D9F80000143010F011FD18497F
:2061900018488A78510604D5F90758BF41F20A4101D541F204414180418341861248134A77
:2061B00001801348134908600121107807F078F829680A680020107105E0002010F0A6FBD4
:2061D000862011F03FFC05B0BDE8F08F6F4F0020F44B0020CC470020104F002000000011F4
:2061F000882B0020204A0020504F00206E4F0020B5300000204F00202DE9FE4F05467E48AE
:20621000002400680094C0090ED37C48007858B97C497B4851F8112C104040F0817041F89F
:20623000110C20200DF09AFD012D40F0E080DFF80092D9F8DC00012840F0D6800220C9F8F7
:20625000DC0010F07DF801200DF088FD5FEA000805D00120C9F8DC0010F082F8C9E011F032
:20627000ABF8A34602906848684DC0F800B0A86A016801208847012804D158460BF05AFACD
:20629000012000906248634FC0F800B03868112010F05CFF00B10124102010F057FF08B138
:2062B00044F002040F2010F051FF08B144F004040B2010F04BFF20B12868574E016B308881
:2062D00088470A2010F042FF20B12868534E016B308888475248012606602868816944F0AA
:2062F000200088474F48066010F02AFF00F001010191400814D2286A81684B488847824622
:20631000BAF1040FF7D0BAF1010F04D1286A42684548032190474549086820F0030008601B
:20633000584600F09BF92B683868986B8047019801280CD0BAF1010F04D1286A42683A4842
:20635000314690473949086840F0030008603048066028684169204688470B2010F0F6FEE6
:2063700020B128682C4BC16A188888470A2010F0EDFE20B12868294BC16A188888472848A7
:2063900006600322C9F8DC20264BC3F800B02868416B204688470128F9D1386804200DF0A4
:2063B000DDFC0446184806603868134800688009FBD30098012802D130460BF0BBF910F071
:2063D000B3FE08200DF0CAFC07460298C9F8DC6011F09CFAFAF7DAFD0FF0C2FF57EA0400C9
:2063F00018BF4FF0FF3804E06FF0040801E06FF001084046BDE8FE8F1410094068240020D7
:20641000FFFFFCFC150009400C400940B8010010000222432C2009407E8E01007A8E0100A8
:2064300028200860800104430040034024220840802300202DE9F0470A200EF043FD86487D
:2064500005684FF0090A0DF0D3FD0FF0FFF950460EF038FD4FF004092D1F15F8048F6E78C2
:20647000AB78EF78404610F046FD0446404610F042FD10F040FD4440404610F03CFD10F02A
:206490003AFD10F038FD4440304610F034FD604086EA0004304610F02EFD10F02CFD10F077
:2064B0002AFD4440184610F026FD10F024FD604083EA0004184610F01EFD10F01CFD10F0DC
:2064D0001AFD4440384610F016FD10F014FD10F012FD604078402870404610F00CFD10F0E1
:2064F0000AFD10F008FD0446304610F004FD4440304610F000FD10F0FEFC4440304610F0D4
:20651000FAFC10F0F8FC10F0F6FC4440184610F0F2FC604083EA0004184610F0ECFC10F068
:20653000EAFC10F0E8FC4440384610F0E4FC10F0E2FC604087EA0004384610F0DCFC10F056
:20655000DAFC10F0D8FC604088EA00006870404610F0D1FC10F0CFFC88EA0004404610F07D
:20657000CAFC10F0C8FC10F0C6FC4440304610F0C2FC10F0C0FC10F0BEFC4440184610F0AF
:20659000BAFC4440184610F0B6FC10F0B4FC4440184610F0B0FC10F0AEFC10F0ACFC44408D
:2065B000384610F0A8FC604087EA0004384610F0A2FC10F0A0FC10F09EFC60407040A870DA
:2065D000404610F098FC88EA0004404610F093FC10F091FC10F08FFC4440304610F08BFC6D
:2065F00010F089FC604086EA0004304610F083FC10F081FC10F07FFC4440184610F07BFCAC
:2066100010F079FC10F077FC4440384610F073FC4440384610F06FFC10F06DFC4440384639
:2066300010F069FC10F067FC10F065FC60404340EB70B9F101097FF410AFBAF1010AA5F171
:206650000C057FF400AF0DF0D3FC0FF0FFF800200EF038FCBDE8F0877C0700112DE9F84FD6
:20667000DFF804B20746ABF13500DFF8F0810068800880F0E28075480068006880477E493A
:206690000831D1F8009000254FEA29715FEA995201F101010AD2C0F13E0210F10A0F4FEA18
:2066B000E202D8BF08229142B8BF111C684BD3F87C21C2F30462162AA8BF203A1B68C3F33E
:2066D0000443162BA8BF203B9A465218162A05DA12F10A0FB8BF6FF0090200E015225D4B3B
:2066F0005D4E02F01F0141F4F8511980316811F0030F18BF0125C90828BF45F002050FB159
:2067100045F00405434693F90710411A052904DA9979A94208BF99886FD0DFF844E10F2841
:20673000A0F10F0829DB08EB0011A1F1F0084FEA28210091072984BF07210091062988BF5A
:2067500006215EF821600424774604EB81043C594FEA950CA41BEE0804F0FF0124BFC4F320
:20677000072631446F08AE0824BFC4F3074631446E0828BF01EB146104E000214FEA950C41
:206790006F080091009C5EF824E05FEA5C060EF0FF0424BFCEF3072634447E0824BFCEF3CC
