:20000000004000209D3C010001C9011001C9011001C9011001C9011001C9011001C9011084
:1C00200001C9011001C9011001C9011001C9011001C9011001C901103FC9011089
:20003C0080B54FF4FC720FF278011A480EF05AFC012119484174002202210270C17601BDAA
:20005C002DE9F0410FF2502214493820136854689568D6681769D2F814C0D2F818E0D2F8F9
:20007C001C800B604C608D60CE600F61C1F814C0C1F818E0C1F81C8020322031401EE5D1DC
:20009C0050689368D46812680A6048608B60CC60BDE8F081480400215903002100C00021D1
:2000BC00410500217D0500212D06002170B51D46004C204787B2000010B5014800470000FD
:2000DC00D509000070B5614C6148254650358047022809D14034E1885E4A914204D1E97C5E
:2000FC00890601D4911DE18070BD70B557495A4A084650300378002B10D08379012B0DD181
:20011C00037C5B09DB0709D0097D544DC1746C7F20202043687790476C7770BDFF21C17420
:20013C00904770BD10B54E48484C804702280ED121464031CA88474B9A4208D1CA7C5209CE
:20015C00D20704D0227D920601D49A1DCA8010BD70B53E4843494030C07C4009C00707D032
:20017C003E4D41482C8B2043288388472C8370BD884770BD10B53B48344CAC388047214609
:20019C0053310A789309DB0705D04034A2730A7803231A430A7010BD2C4940310871182876
:2001BC0012D004DC0A280BD00B2804D10AE025280CD02A280CD02D4980004018C0687047DE
:2001DC002B4870472B4870472B4870472B4870472B48704770B504461C484E252D5CAE09AB
:2001FC00F60716D0067D3007000F052803D00120054202D00DE00220FAE7E80905D07006D1
:20021C0003D54868800F012803D05B085B0052085200062B03D01020022B11D011E0FB20F7
:20023C00024002232046FFF741FF002807DAC100611A2039497E1422114200D1002070BD93
:20025C00024303432046FFF731FF70BD4401002137CB000004140000EBC80000A800002142
:20027C00F5B4000053AD00002020000080DF00001D050021F9040021CD040021930400210F
:20029C006D04002110B5034CFFF716FF20680028FAD110BD0011044068610000F825F965B0
:2002BC00F9754500450045002600260057A3520052004C00401F401F401F3F000000000053
:2002DC00304000400140034007400F404F40CF40CF41CF43CF47CF4FCF3FCF2FCF1FCF0F6C
:2002FC00000000000000000000000F00080000003F00000040003F000000040068000E0093
:20031C00DC00060043001A00050000000000020000000000000000000400C00000000400B3
:20033C00C000000007000000000000000000000000000000000000003040004001400340A6
:20035C0007400F404F40CF40CF7FCF6FCF5FCF4FCF3FCF2FCF1FCF0F00000000000000009D
:20037C0050C00091007070C00091007082312100319110B10070018101B100A1823132910D
:20039C0010B101911110418141227740F106007051C0019130181039833108D01831416FD1
:2003BC003100319110B18314141683680070251050C00091F4C340C12014036F3110410497
:2003DC005082F0229840512622C082312100319110B163393110410482C08231210031919B
:2003FC0010B163393110A2C082312100319110B150101531051405920070676452C03110A6
:20041C0031066131C1026A6412C13110213971065131E1026A64007051C0019101CCE2C0CC
:20043C006A64676411C1C2C06A6450B054B0007140804022D6440022C94060B08180111EC9
:20045C00C944007054A064B0F0800022C9404012B09032B070C1DF6811C122C16A6470C1C0
:20047C00E46851C00191E2C0823160820200329110B130C2EE68538253395339B16460C347
:20049C00F4688012B09032B00070676401C122C16A6401C1C2C06A645382B164C012B09074
:2004BC0032B00070676472C281C06A6422C111C16A6402C011C16A6462C031C36A6462C3D2
:2004DC0011C16A6402C311C16A6453825339B164E2C36F6411221C4142C281C86A6452C24E
:2004FC0011C16A6472C2E1CE6A6402C281C86A6402C201C86A64B0C030690070676442C211
:20051C0001C86A6452C211C06A6472C2E1C06A6402C001C16A6462C001C36A6422C101C127
:20053C006A6462C301C16A6402C301C16A645382B16400708180111E5C4150B054B000712B
:20055C00408040225D4154A064B0F1800122514500700022514160B04E61000000000000AA
:20057C000000000000000000067305720B720E7250B00071818060B050A09280F0EFF1928C
:20059C0002936A6741228C458080F1C11004301601110114016CB561B661B761B861B9618D
:2005BC00BA61BB61BD61BF61C161C36126632D63F0C002043231412A121432160111211412
:2005DC00016CDA61C561E061C761CB61B561B561B561F461C561FA61C761CB61B561B56104
:2005FC00B561F461C561FA61C761CB61B561B561B561E761C561ED61C761CB61B561B56121
:20061C00B561CF61CF61CF61CF61CF61CF61C064CF61F964CF610665CF613265CF6174676A
:20063C00CF611166CF61C0644E65F964CF61066511663265CF618280E0DFF2926A67B0B044
:20065C00D661B1B00673057230B06C61D0CF6A6784C203C0C0C37C64207851788278E378B7
:20067C001579B6780062C0CF6A6784C203C0C0C37C64307861789278F3781579C678006250
:20069C00B0CF6A6784C203C0C0C37C6440787178A27803791579D678109221923292439281
:2006BC005492659256911FC0FF914039F00601101031101400927067CF61E3B054A0F08076
:2006DC0050221A4640800022BE461262E3A000C86091598150B0918041228E46A0CF6A6734
:2006FC0012828231823942398B641282F2062F101F312F141682D622334640C1346200C5AF
:20071C0020140D6F6D39DE10F4C34E0482C082312E006D39A2C082312D001A828A39FA0606
:20073C002082803180390BC00B18BC10AC18038239149B141082F0060110103110145181C2
:20075C0010140C14C622C94631D0C1266462021011C0013010C00118021882312100C126C2
:20077C00919103B013B063B053B041800122BE46B481C491D581B51C774E95186591F0803E
:20079C00102269428C623D9110B13E9110B1E08000228146E6228142E0B0951865910F926B
:2007BC005981F914F0805022114210228C464D6390CF6A6763B052A03082F2C0200402107E
:2007DC0011C0013010C00118021882312100C1269191919113B003B063B053B064B054B055
:2007FC00007141800122BE4663B064B0F08050221142B181C191D1819118619131B0A462D0
:20081C002967E0A059810582591480C0007163B0BA6A6962E3A0018262818231823D80EF61
:20083C00F19202936A6703A0007037824739873930828039F006021011C0013010C0011849
:20085C00021882312100C126819102B012B030824039F006021011C0013010C001180218E9
:20087C0082312100C126919103B013B063B053B0007153A062B052B041800122BE46A4816E
:20089C00C491D581B51CFE4E95186591F0801022F0428C62B481C491D4814518751C084FEB
:2008BC00F0801022F0428C623D9110B13E9110B1E08000221247E6221243E0B065910F92DC
:2008DC005981F914F0805022114210228C4630632967E0A0598105825914F0C0007162B038
:2008FC00226BF062A2808B64CF6112824239F2068B6050B00071CF6170CF6A674082418096
:20091C000122BE46A481C491D58195186591F18011228C46336B41800122BE46A481C491AB
:20093C00D581C51C1C4B95186591F08010223F438C6260CF6A67408241800122BE46B48169
:20095C00C491D58195186591F18011228C46506B41800122BE46B481C491D581C51CB44A55
:20097C0095186591F08010225C438C62E092D08200226B47C0B20070A080F022874330B033
:20099C0002C1623101C0A080001E8043F022814380F86031603981632010101A136F236E5A
:2009BC0011161216826B00702DE9F84FDFF81885DFF8181588F80000002008600921DFF891
:2009DC00100501700D2141804FF408718180DFF80405DFF8041501608A7EDFF80005027042
:2009FC00FF2ACB7E437008BFFF2B0D7F85704E7FC6708F7F0771C97F417115D1FF2D08BFE8
:200A1C00FF2E11D1FF2F08BFFF290DD1DFF8D0140A7802704A7842708A788270CA78C27025
:200A3C000A79027149794171DFF8B81402780A70FF2542784A7082788A70C278CA7002791E
:200A5C000A714079DFF8A02448710021DFF89C04057045708570C570057145711180DFF872
:200A7C009004DFF89014466BDFF88C247078087031781170B078DFF884140870716908791F
:200A9C00DFF87C14421E0A70F078DFF878140870B069DFF87414086008B915F073FFF06945
:200ABC00DFF86844206008B915F06CFF2068DFF8607401688847216851F8042F3846904721
:200ADC00DFF85004DFF850143862DFF850047862306A086008B915F055FF706ADFF84014D4
:200AFC00086008B915F04EFFDFF838B4DFF838649BF8040016F0BCFA306008B900F045B997
:200B1C009BF80500DFF8247416F0B2FA386008B9306837E19BF80600DFF8144416F0A8FA87
:200B3C00206020B9306816F0ABFA38682AE19BF80700DFF8009416F09BFAC9F8000038B900
:200B5C00306816F09DFA386816F09AFA206819E1DFF8A4130A789BF80000DFF8DCA3921CE1
:200B7C00504380B216F084FACAF8080058B9306816F086FA386816F083FA206816F080FAEC
:200B9C00D9F80000FEE0DC480078002800F00281BBF80210DFF8A4B3484380B216F068FA3B
:200BBC00CBF8040078B9306816F06AFA386816F067FA206816F064FAD9F8000016F060FAFB
:200BDC00DAF80800DEE0CC48007816F051FADC49086080B9306816F053FA386816F050FAE3
:200BFC00D9F8000016F04CFADAF8080016F048FADBF80400C6E0C04800781C21484316F0CF
:200C1C0037FAD04A1060B0B9306816F039FA386816F036FA206816F033FAD9F8000016F05B
:200C3C002FFADAF8080016F02BFADBF8040016F027FAC348A5E0B0480078400116F018FA13
:200C5C00C1490860D8B9306816F01AFA386816F017FA206816F014FAD9F8000016F010FA8F
:200C7C00DAF8080016F00CFADBF8040016F008FAB348006816F004FAB249086882E09E4879
:200C9C000078000116F0F4F9B0490860F0B9306816F0F6F9386816F0F3F9206816F0F0F92C
:200CBC00D9F8000016F0ECF9DAF8080016F0E8F9DBF8040016F0E4F9A148006816F0E0F9B1
:200CDC00A049086816F0DCF99F485AE08A480078000116F0CDF99E49086018BB306816F0CC
:200CFC00CFF9386816F0CCF9206816F0C9F9D9F8000016F0C5F9DAF8080016F0C1F9DBF853
:200D1C00040016F0BDF98E48006816F0B9F98D49086816F0B5F98C48006816F0B1F98B4947
:200D3C0008682FE0744800783021484316F0A0F9884A106070BB306816F0A2F9386816F01D
:200D5C009FF9206816F09CF9D9F8000016F098F9DAF8080016F094F9DBF8040016F090F981
:200D7C007748006816F08CF97649086816F088F97548006816F084F97449086816F080F99B
:200D9C007348006816F07CF9002015F0FBFD4FF4804192E03168012008713068057331682A
:200DBC004D73306885733168CD7330680574002031684D743268D072A0223168487103214F
:200DDC003068C28001720720316848720020326890722821306841820121C17600203168BE
:200DFC004877326882F85E00012031680877326882F85D00396808713868057339684D7369
:200E1C00386885733968CD7338680574002039684D743A68D072396848713A6890724FF47D
:200E3C00207039680022C88008818A7401213A68D17421680D732268557321688D732268FD
:200E5C00D57321680D740021226855742368D9720121226811710021236859712168C88065
:200E7C000881002088722168887405202268D0743948016888472A490A6805461068804713
:200E9C0027490A6852F8043F0020984718481D4BC16818780A88314902430A802846304985
:200EBC000A6890470C212F4800F05EF80F4800F05FF800F061F84FF4005198F80000BDE833
:200EDC00F44F0CF029BA00BF6E4F0020044F0020604E0020084F0020B63F00502C4E0020A1
:200EFC00E81200503C4E00200C4F0020344E0020909401006D4F00207B4F00206B4F002000
:200F1C00724F00206C4F0020F04E0020F44E00207C4B00208D700100F84E00209D700100E0
:200F3C00FC4E0020AC2A0020104F00209C2B0020184F0020A02B002048090011684E002025
:200F5C00004F00206C09001170090011884E00208C4E0020904E002058250020544F0020A8
:200F7C005C250020F84D0020DFF800F0E5710110DFF800F01D6E0110DFF800F04D71011028
:200F9C00B0B5174C241D20680004070C23D01248006800688047114991F90720824205DDF8
:200FBC0010F1800FB8BF6FF07F00C8718D88BD4210D80A68D4F8D40F801A801C1F2888BF16
:200FDC001F207F1B4008C7404FF6FF70EF19B84238BF071C8F80B0BDEC0100105C0900110E
:040FFC003010094068
:20100000B41200001810000015AB0110FDB301106DC00110FDAE011099B5011000000000F7
:08102000000000002D0000009B
:20102800B01200003C100000B1C00110A9BF011067C0011069B80110000000000000000035
:041048003000000074
:20104C00B012000060100000BDC00110CDB30110D9BD01106DB3011000000000000000005B
:04106C00310000004F
:2010700000000000CC2A002004000000000000000000000020000000E8C901103000000034
:2010900028100000D42A00200400000000000000000000000C000000D8CA0110180000000F
:2010B0004C100000DC2A002004000000000000000000000024000000F0CA01101800000093
:2010D00000000000E42A00200400000000000000000000001000000018CA01102C0000009F
:2010F00000100000F42A0020040000000000000000000000200000006CCA01102400000003
:20111000FFFFFFFFFC2A00200400000000000000000000002800000090CA011024000000C2
:20113000FFFFFFFF042B00200400000000000000000000001400000008CB01101800000040
:20115000FFFFFFFF0C2B002004000000000000000000000058000000B4C90110340000000E
:20117000FFFFFFFF142B00200400000000000000000000001000000020CB011018000000DC
:20119000FFFFFFFF1C2B00200400000000000000000000001C000000B4CA01102400000009
:2011B000FFFFFFFF242B00200400000000000000000000003800000044CA01102800000031
:2011D000FFFFFFFF2C2B00200400000000000000000000005400000078C901103C000000A6
:0811F0000100000078940100E9
:0411F80001000000F2
:0411FC0000000E00E1
:0412000000000F00DB
:0412040032000000B4
:0412080001000000E1
:04120C00682900202D
:0412100000020000D8
:0412140000000000D6
:0412180001C90110F7
:04121C0000000000CE
:0412200000000000CA
:0412240008000000BE
:0412280000002200A0
:04122C00D4270020A3
:0412300000000000BA
:0412340000000000B6
:0412380008000000AA
:04123C00EC2800207A
:0412400000000000AA
:0412440000000000A6
:04124800080000009A
:04124C00000000009E
:04125000000000009A
:041254000000000096
:041258000000000092
:04125C00010000008D
:041260003C28002006
:041264000600000080
:041268000100000081
:04126C000427002033
:04127000000000007A
:041274000000000076
:041278000002000070
:04127C00000000006E
:02128000290043
:02128200010069
:02128400250043
:02128600300036
:02128800310033
:02128A002D0035
:02128C0001005F
:01128E00015E
:08129000030000000C940100B2
:0812980000000000000000004E
:0412A0000000010049
:0412A4000000030043
:0412A80013C401105A
:0412AC00176E0100B8
:0412B000B812000070
:0412B400B81200006C
:0412B8000000000032
:0412BC006C2A002078
:0412C000796F010041
:0412C4002000000006
:0412C8000893010086
:0412CC009C910100F0
:0412D00029C101101F
:0412D400270E0100E0
:0412D800C711010039
:0412DC00A1C7011095
:0412E000A3C701108F
:0412E4000000000006
:0412E800EB91010085
:0412EC00848F0100EA
:0412F0009C8F0100CE
:0412F4006C8F0100FA
:0212F8000200F2
:0212FA000900E9
:0212FC000100EF
:0212FE000000EE
:0113000001EB
:04130400D16E0100A5
:04130800494E010049
:04130C004162010039
:041310003152010055
:04131400C9520100B9
:04131800893B01000C
:04131C00E1100100DB
:0413200073710100E4
:04132400712501002E
:0413280015C70110D4
:04132C0025C70110C0
:201330002DE9F04F9A4C04F10D0004F11801ADF1AC0D11F053FE944F791C0A6804A80260B1
:2013500089888180914904AA102008F091F804F1940015F0F8FEE06104F1A00015F0F3FEE2
:20137000D64D322201232062294604F1EC0012F04FFB6422022304F58870294612F048FB54
:20139000DFF83C9310201F220223494608F070F801260020ADF87A005021ADF87C10A02545
:2013B0008DF8856080468DF886600DF18502ADF87E50C820ADF880803146ADF8820040F22D
:2013D000053003F0FBFF40F2063002210DF17A0203F0F4FF4FF442701D2104F1CD0203F006
:2013F000EDFF04F1300240F20730072103F0E6FF4FF4447031460DF1860203F0DFFF40F26A
:20141000113002211FAA03F0D9FF40F2123002210DF17E0203F0D2FF40F21330022120AA89
:2014300003F0CCFF4FF4457002210DF1820203F0C5FF04F1B80042461523B2490090102062
:2014500008F016F84946102006222B4608F010F84946102007222B4608F00AF8494610200C
:2014700008222B4608F004F84946102009222B4607F0FEFFCDF87480B1468DF887601DA89D
:201490008DF88980A04D8DF888904FF481628DF88A90042300902946102007F0E9FF0DF12C
:2014B00087004FF48062334600902946102007F0DFFF22A840F2024233460090294610200B
:2014D00007F0D6FF0DF1890040F20342334600902946102007F0CCFF0DF18A0040F20642C6
:2014F000334600902946102007F0C2FF874910204FF0FF3207F0BCFF854910204FF0FF32EC
:2015100007F0B6FFDFF80CA210201323834A824E00905146019607F0ABFF814E3078800031
:2015300015F07AFF7F4DBB46E86020B33078800015F072FF2861F0B13078800015F06CFFD5
:201550006861C0B1E9684FF6FF7013F017FD29694FF6FF7013F012FD69694FF6FF7013F044
:201570000DFD7149102005F51072009019230191514607F07DFF04F12C00CD49A8600E46F0
:2015900077780878FFB905E07C8E0100A1B5001008020020324604F12801116214F06CF922
:2015B00037463D460246CDF8008030464430C149019007F15400029006F11C000390AB7862
:2015D000102007F055FFBC4904F13802102007F04FFF607B14F050F9B8490246102007F03F
:2015F00047FF607B14F048F9B5490246102007F03FFFB548B349086008F07EFDB3491020CA
:201610000C2207F035FFB44EB14D4F46B01D2390A069B04A41464FF0FF3316F085FA0028A4
:201630002690F5D040461C9021A91CAA1EA813F011FE002840F0CD81BDF87810607BB946C8
:20165000102940F0BF819DF88410884240F0BA811C9E31884FF6FF728A4200F08B814946F3
:2016700033782791913B45D01F3B40F077817178162927D030797E2836D07F2834D1A37859
:20169000308984F80380208273B3B6A00A2110F0FDF8B4F81090484610F034FF82464846E1
:2016B00010F030FF15F002FC81B2504610F0EEF8AFA0022110F0EAF816E0C046FD6F01007C
:2016D000BD84011014F0D8F803464846C64900907288102007F0CCFE30B9484614F07CF983
:2016F00066624046279039E1317906F1080016F017FA33E173780E3B18D09B1E00F02B8176
:201710002CE1C04675FD000031510000D96001001565010075570100F4930100F81D002073
:20173000694F0020D8110020DC930100B08841F20541814240F01281B6683378002B40F0ED
:201750000D817178B0785A4B00EB0120D989814240F00481F0784042C0B214F083FF04F178
:20177000600204F1580382E8030093E8030004F1700204F1500383E8030092E80300B5A2CB
:201790000CCA06F016FF81468A46B4A204F1680080E800060CCA484606F00BFF0B460246A3
:2017B0005146484608F022FF249004F1780282E80300F07825914042C0B214F053FF04F1EE
:2017D00058020CCA06F0F0FE259B249A0AF0B4FA02460B4604F1580003C806F0EAFE259B70
:2017F000289004F1600282E80300249A29919DA003C806F0D9FE53464A460AF09DFA81468F
:201810008A4604F1800080E80006F0784042C0B214F028FF04F158020CCA06F0C5FE259BE0
:20183000249A0AF089FA02460B4604F1580003C806F0BFFE04F1580282E8030029992898BB
:2018500004F1700686E8000612F072F9BE4A61695054606909281CBF401C60617ED108224B
:20187000B948511C401E10F8013F46789E42DCBF06704370491EF6D1521EF1D5DFF8C8C21D
:201890000A2640461CF8011B761E0844FAD10A2190FBF1F0C4F81480C0B25028E0711DDC8C
:2018B0004628BCBFE77284F80A80267BC6B932E0A8150020BB3E0100A967010051880110CC
:2018D000318101106C0D00203127010081B30010281F0020070000C08C0400202773A7726E
:2018F00095F8A81003290BD14B2809DA667A3EB1A67A2EB1B4A00C210FF0C8FF84F80A801A
:20191000267B46B195F8A800032804D1E079462801DA667A96B9E67ABEB195F8A8000328EA
:2019300013D1E079502810DD607A01280DD0BDA009210FF0ABFF6772277306E0BCA00B2104
:201950000FF0A4FF84F80980E7727F4841460A220EF095FF02E0082010F030FEDDF89C9032
:2019700030E0C0464D54552053697A653A2000C00A0D00C07088400824D3666A16B3E07B74
:2019900006F10803401CE073A549009372883379102007F06DFD5FFA80FABAF1160F11D04A
:2019B000607BBAF1040F0DD0666A13F065FF034640460D4900907288102007F059FD5046A8
:2019D00014F00AF81C9820B1B9F1000F01D015F0DCFC2698C008C0F0E580206A16F09CF846
:2019F000002840F0DF8001E0556F0100206A16F08FF880680646002800F0D480FFE7007865
:201A1000102840F0CF802078012806D1B4484146C8220EF034FFB24802E06078B0494018C4
:201A30007168327A0CF064FF206A15F012F8706815F0ABFC304613F0BBFA206A16F06CF873
:201A5000A0B9A06984F80080042116F05DF820780EE0C046000000E04D62503F000000A04E
:201A70009999B93F000000000000F03F27703846327A617800281144CEB2667000F092808E
:201A9000002E00F08F800BF107010A6819A802608B8883808A7982710BF10E010D2215A86D
:201AB0000CF026FF11A80BF11B010D220CF020FF0DA80BF128010E220CF01AFF09A80BF10E
:201AD000360110220CF014FF04A80BF1460111220CF00EFF824919A8062214F019FB28B1AE
:201AF0002399B61F032032460EF03EFF7C494620287006466E703346AB703246EA7015A85F
:201B100015F0B4F8A0B995F8A80003280CD1E0793C2806DB4628A8BF48A006DA4BA0102117
:201B300004E04FA00A2101E050A00F210FF0AEFE267A6B4911A815F099F838B9012E18BF51
:201B50004EA026D152A00BE09002002064490DA815F08CF880B995F8A800032802D050A0BB
:201B70000C211BE09BF800001BA93A468DF86C0004200EF0F9FE13E0594909A815F076F893
:201B900048B1574904A815F071F848B984F8028047A0102102E0A7704AA00F210FF076FEE5
:201BB00084F801802698C00F20D31AE0E06914F050FF061C15D033885B1E0CD05B1E0DD194
:201BD000B07808F0ABF809E041542B57454C434F4D450D0A00C0B07804F04AFC304613F0CB
:201BF000E7F9E06915F098FF0028DFD02698400804D3394815F02AFC09F05EFB2698800818
:201C1000FFF406AD354815F021FCA07B06287FF4FFAC34482F49C289102007F029FCF7E4A2
:201C3000DDFE001041542B4C4F434B0D0A00C04641542B554E4C4F434B0D0A0041542B4FF1
:201C500055544341525F4641520D0A0041542B4F55544341525F4E4541520D0A00C046C0B6
:201C700041542B434152494E0D0A00C041542B444953434F4E4E4543540D0A0041542B2BA4
:201C9000444953434F4E4E4543540D0A00C046C041542B434F4E4E4543540D0A00C046C0C6
:201CB00041542B727373695F6E6F0D0A00C046C041542B434C4F53455F44454255470D0A67
:201CD00000C046C041542B4F50454E5F44454255470D0A0025AB0010F4020020180300202E
:201CF0008C040020A81500202DE9F04F0C4685B0834614F8010BDFF870278DF80000182857
:201D10000BF1FD010BF1E7080BF166090BF20D1A0BF5B0760BF59C750BF5C67700F29183C5
:201D3000DFE810F019006F005F0191008F038F03FA00690311012301FE000D0133018F03C1
:201D50008F037C018F03610155017503D602D60227028F03740214F8010B8BF8860002227C
:201D700021460BF1880015F0CBFE014602220BF18A0015F0C5FE014602220BF18C0015F0E9
:201D9000BFFE014602220BF18E0015F0B9FE04469BF8860040008BF886000BF18601022272
:201DB0004888400048800BF186008188490081800BF1860108890001088121460BF18400E1
:201DD00015F09EFEB9F81E10BBF80800091A89B247F6FF7291422ADA0BF18601C8888A88F0
:201DF000401C520050430A89904203D33B208AF80B0039E2012089F81C000020ABF81E00B5
:201E10001EE0052221460BF1610015F079FE014602220BF1920015F073FE0BF1860047F61F
:201E3000FF728189BBF80800091A89B2914280F218820BF18600012181720021ABF81E1096
:201E5000012028700CE398F81600C1070AD41A2198F80D0088F80E10012808BF0D213FD0DB
:201E70000D21CDE1002089F8000089F806000822012088F8110021460BF1B00015F040FE1C
:201E9000014602220BF1B80015F03AFE0BF1A80601460822304615F033FE04460821304626
:201EB00015F02AFE0BF19C0604222146304615F027FE0421304615F01FFE0BF1A00015F0BC
:201ED00017FE0BF1980015F00FFEDFF8A005018841F08001018098F80D00012806D104213D
:201EF000584605B0BDE8F04F12F056BE99F81000012804BF99F811100F290BD1584610F094
:201F1000BFFC042158460FF0F9FD0F2089F81A00FD2175E1042173E1012088F80F009FE256
:201F3000002089F8000089F8060088F800000B21012088F80D00002088F8010060E101200C
:201F500088F810008CE2002002F10906235C365C33432354561C365C33400B54401C0828F1
:201F7000F2DB584610F096F870E2002002F10905235C2D5C2B432354551C2D5C2B400B5434
:201F9000401C0828F2DB022048E299F8060008B93D2167E19AF800000128D3D014F8011B08
:201FB0008AF80310022221460BF5897015F0A8FD014602220BF58A7015F0A2FD01208AF8A2
:201FD00000009AF8020000281BD10C2118E198F81600C10601D41221D1E0584611F0EEF878
:201FF00034E221783EE1207830706078707099F8100001280CD199F811100F2902D0162971
:2020100002D02DE268732BE2387B40F0010016E205B0BDE8F04F002014F0BABC98F8160032
:20203000810707D410F0110F08BF0F2000F009821A2252E02078617800EB01202882E178AE
:20205000A07800EB012068826179207900EB0120A882E179A07900EB0120E882207A287698
:20207000A17A607A00EB01206883217BE07A00EB0120A883A17B607B00EB0120E883217C2C
:20209000E07B00EB01202884A17C607C00EB01206884217DE07C00EB0120A884A17D607DFF
:2020B00000EB0120E8840BF5AA700490688B0390287E0290BBF808000190E88A0090AB8AA9
:2020D0006A8A298A58460EF08FFF68B198F81600410701D40F2152E01E22584605B0BDE8A9
:2020F000F04F0F2112F074BD688A0BF186018880A88AC880E88A088102208BF886000020F1
:202110004880BBF83400C01DA9F81E008888BBF83210884201BF0BF18600C188BBF8340023
:20213000814206D10BF186000189BBF8360081421DD099F81000012804BF99F811100F29D9
:2021500007D099F8150020B10F2189F81A10FE2156E0FC2158460FF0D1FCE88A0090AB8A33
:202170006A8A298A9BF8060015F0BAFC78E1102146E098F8170010F0090F03D116218AF858
:202190000C1060E16078217800F00700014021702078797B0140F97211D0481E01420CD0FA
:2021B000490704D5B87B10B10421F97205E0F97A022001421AD14008FBD1F87A08B9B97A40
:2021D000F972F87A042803D1584611F0BEF8B083F87A15F081FC3871B28BB97B012311F057
:2021F00099FD0146308B884202D207E0F872E4E7B28BB97B3879012311F08CFD788017217D
:20221000584605B0BDE8F04F0FF078BC60782178814207D100F007000840207033D0421E06
:2022300010420FD01E221821584612F0D1FC9BF80610002300221E200CF0CCF9387B40F0A7
:202250004000FCE0F87247F6FF72A078E17800EB012038813989BBF80800091A89B2914256
:2022700006DB28218AF80B1001208AF80A00F7E00120B871F87A042803D1584611F065F84B
:20229000B083F87A0BE099F81100162806D1BA7A9BF80610134600200CF09CF9B87A387125
:2022B000B28BB97B3879012311F034FD0146308B884205D3B28BB97B3879012311F02AFD84
:2022D00078800121387B40F0400038732970C7E02078617800EB01207082E178A07800EBFB
:2022F0000120F0826179207900EB01203082E179A07900EB0120B082B18AF089884288BF94
:202310000846B97A042905D140F691229042B8BF4FF42960F28BF0839042B87A14BF01243F
:202330000024042803D1584611F00FF804E0B089F18A884288BF0846B28BB083904214BFB7
:20235000012100210C433089718A328B884288BF0846904214BF012100210C433083B28BE4
:20237000B97B3879012311F0D5FC0146308B884205D3B28BB97B3879012311F0CBFC7880C8
:202390007189308A728B814288BF0146718391429BF8063014BF0120002004438A423449F7
:2023B0000A6802EB4311728B8041121DC00F0A7610B1584612F07EFE9DF80000142810D18F
:2023D00044B1F08B0090738BB28B318B9BF8060015F07EFB584605B0BDE8F04F15210DF075
:2023F00015BE1CB1387840F008003870397841F02001397034E020780E280ED00F2809D021
:20241000122804D014280CD0162812D028E00020287225E00120287322E0032088F8150029
:202430001EE0387840F00200387040F01000387016E0387B40F00200387340F010003873AB
:202450000EE08AF80C00584610F0A6FB40B905B0BDE8F04F074800784FF480410AF062BF39
:2024700005B0BDE8F08F00BF882B0020524F0020700900116E4F00202DE9F04F8A468E49BD
:20249000074600248C22ADF1B40D02A825940CF02FFA8C4DDFF830820FF2182B781E00F0FA
:2024B0001183DFF81892401E00F0C682401E00F0F380401E33D0801E40F04283494691F894
:2024D000047201F5017847B35FFA8AF028B37C4B03F16C06304614F0E9FC80B9304614F020
:2024F000E5FC0246214630460EF0C9F9304614F0DDFC0246414630460CF0FAF905E0304624
:2025100014F0D4FCC01880F86B7030467BA112F000FD00B9012485F824410620EBE05FFA11
:202530008AF125AA0DF00EFB07462598012872D0022862D003285DD0042858D0052851D070
:2025500006284DD0072848D00B2843D00C283ED00D283AD00E2835D00F2831D010282DD06A
:20257000112829D0122825D0132821D014281CD0152818D0162814D0172810D018280CD014
:20259000192808D01A2804D01B2850D15CA016212AE061A017E066A008E06BA018E06FA063
:2025B00016E073A00FE078A00DE07DA015211BE081A00DE085A00BE089A004E08EA002E085
:2025D00093A008E097A014210EE09CA000E0A0A0132109E0A3A0122106E0A7A00D2103E049
:2025F000A9A008E0ACA00E210FF050F91FE0AEA00921F9E7AFA00F21F6E7B2A009210FF0A9
:2026100045F949460120CA794872462AACBF08730C7320460AE0AEA00B210FF037F9494662
:202630002046CA7948724E2AB8BF0120C87225983946042208F01CFD074640460078A0B1CE
:20265000E1A010210FF022F938460FF05BFF064638460FF057FF14F029FC81B230460FF0D7
:2026700015F9584602210FF011F9002F00F0688205F1A801204601220C700EF075F905F163
:20269000F400214610220EF0FAF805F58270214610220EF0F4F853E295F82401002840F0FF
:2026B0001D81504609F0C6FB80B905F1A806032030701AE00A0D00C0AC870100080200204D
:2026D000D01F0020281F00200A02002005F1A80605F1F4002146102234700EF0D0F8214650
:2026F000102206F15C000EF0CAF83146204601220EF03AF903200EF0FBF821E24100C046F6
:2027100041542B424D5F444F4F525F4F50454E5F4C4652460D0A00C041542B424D5F444F95
:202730004F525F464F55525F52460D0A00C046C041542B424D5F444F4F525F5448524545C0
:202750005F52460D0A00C04641542B424D5F444F4F525F54574F5F52460D0A0041542B420A
:202770004D5F444F4F525F4F4E455F52460D0A0041542B424D5F444F4F525F4F50454E5F48
:2027900052460D0A00C046C041542B424D5F444F4F525F464F55525F4C460D0A00C046C069
:2027B00041542B424D5F444F4F525F54485245455F4C460D0A00C04641542B424D5F444F01
:2027D0004F525F54574F5F4C460D0A0041542B424D5F444F4F525F4F4E455F4C460D0A00BC
:2027F00041542B424D5F444F4F525F4F50454E5F4C460D0A00C046C02041542B434C4F5377
:20281000455F4145524154494F4E0D0A00C046C041542B4F50454E5F4145524154494F4E30
:202830000D0A00C041542B434C4F53455F43415257494E444F570D0A00C046C041542B4F82
:2028500050454E5F43415257494E444F570D0A0041542B434C4F53455F534B594C494748B1
:20287000540D0A0041542B4F50454E5F534B594C494748540D0A00C041542B46494E445F06
:202890004341520D0A00C04641542B52494748545F444F4F520D0A0041542B4C4546545F03
:2028B000444F4F520D0A00C041542B464952450D0A00C04641542B5452554E4B5F4F504563
:2028D0004E0D0A0041542B4C4F434B0D0A00C04641542B554E4C4F434B0D0A00012840F081
:2028F0002F810AF0B1FF00287AD126941FFA8AF014F092FD5FEA000872D005F58270214635
:2029100010220DF0BCFFA14626A8524643466B49009005F1E400CDF8049007F057F9002801
:202930005BD1102728A8214627973A460DF0A7FF269B28A827A9424608F0E0F905F1A806AE
:2029500005F5DA7C0DF1A00E23461CF8012B1EF8011B7F1E81EA020141EA0303F5D1184333
:202970003BD1574B2699404602AA13F0A5F9002833D19DF8260008282FD19DF8150010280E
:202990002BD1404612F014FB9DF815200DF1160006F1DC0113F0BCFB10BB9DF80C200DF19E
:2029B0000D0006F1B40113F0B3FBC8B9229820210122C5F8580106F1BC000DF06DFD78B99D
:2029D000032085F8A8000EE053656E645F636D645F726573756C743A00C0404612F0E8FA32
:2029F00005F1A80634702046314601220DF0BCFF95F8A80003287FF47DAE9DF841100DF1E5
:202A100042000DF05BF806F15C0506F1B40438B9032002A904F084FF4BA00F210EF036FF89
:202A30000DF127000168296040686860676864367760206830605DE6BAF1010F27D095F825
:202A5000240101280BD0504609F048FD061C0AD005F1F400214610220DF011FF03E0504664
:202A70000DF0FAFF064602200DF042FF05F1A801002E0CBF0220201C012285F8A800204600
:202A90000DF072FF34A009210EF000FF58E06A794C46A91D04F5C2700BF02AFF68791322E5
:202AB00090FBF2F7B0FBF2F1617107FB02F1401AA07104F1EC0014F0C9FC41E00C040020D7
:202AD00070890100504609F0A3FB074601200DF00FFF40460078A0B122A008210EF0D6FE3A
:202AF00038460FF00FFD064638460FF00BFD14F0DDF981B230460EF0C9FE584602210EF065
:202B1000C5FE002F04BF05F1A80634700FD005F1B000214614220DF0B2FE05F1A8000646EF
:202B3000214620221C300DF0AAFEFF20307017B90CF0DAFD28712046314601220DF014FFE0
:202B50002DB0BDE8F08FC04641542B53455353494F4E4B45590D0A0041542B415554480D7B
:202B70000A00C046696E666F7265743A000070472DE9F04FD24C04F118012046ADF1340D87
:202B900010F02CFACF4D00264FF6FF70012366703246E081294604F1A40010F039FF0223D1
:202BB000324604F1C800294610F032FF0423324604F1EC00294610F02BFF4FF0040A04F1D5
:202BD000440810224046314684F802A00DF057FE04F154091022484631460DF050FE04F131
:202BF0001C073E6004F10A052E70E671267207206072CDF80080DFF800830222102003463E
:202C1000414606F035FC102003224146CDF80090034606F02DFC102052464146009713461E
:202C300006F026FC4FF0080B4FF0030905F12A00079005F17900089005F11E00099005F16E
:202C50005A000A9024350B9517E06078A28FE18FB4F84050B4F8423006280ED1ADF80A20D1
:202C7000ADF80C10ADF80E50BA48ADF8103014F0EFFB012002A90DF0B9F8A069B44A3146B3
:202C90004FF0FF3314F050FF071CF6D0059606A80DF11A0105AA12F0DDFA002840F0C081F4
:202CB000BDF818102078102940F0B6819DF81A10884240F0B181059D29884FF6FF728A422F
:202CD00000F09F812B78A23B00F082812E3B40F0A381A978B046002900F03E81891E00F01E
:202CF0000D81491E012940F2D980891E00F09C80491E6FD0491E5CD0083900F05981891E7C
:202D100040F05C8194F83A30A888052BADF8080047D001208DF812008E4814F099FB94F8CA
:202D30003A0001281ED004281CD003280DD002280BD00598C188ADF80A100189ADF80C101D
:202D50004189ADF80E10818927E0A08FE58FADF80A00B4F84030ADF80C50B4F84210ADF8B3
:202D70000E301AE0A08FE9888842D8BF081CADF80A002989E08F8842D8BF081CADF80C00E0
:202D90006989B4F840008842D8BF081CADF80E00A989B4F84200884200DC0846ADF8100044
:202DB00001E08DF81260AA49102002AA06F060FB04E1A84814F04CFB6B78002B40F0FE802F
:202DD000E88860822889A0826889E082614814F01DF9F3E0AA88B649102006F049FB07989B
:202DF000414606220DF04BFD6682A682E682A8792073584814F02CFB964814F029FB4FF093
:202E100001084FF6FF702379E08153B9A879082812BF84F801A005206070404614F026F9FF
:202E3000CCE084F80190C9E06B787BBB291D07980A68026089888180062363706889E081EE
:202E5000E8896082288AA082688AE082E878E07294F83A00012818BF02280BD19A49102056
:202E70001F2206F005FB4FF47A7180B24143394811F006FE688900909249CDF804A0EA787A
:202E900010202D1D2B4606F0F3FA9AE06878312840F08B80E67084F801A092E06B78002B73
:202EB00040F08380A878238A6178032818D0E07825794BB9012814BF2671E6700BE0C04642
:202ED000A81500207D700100054304D07F48194611F0D6FD61780729DDD10620607070E004
:202EF000062907D0E578002D08BF84F8019068D00220F3E70720F1E76B6701006B78002B4A
:202F100053D1EB78617893B902291DD007291BD0062902D12079012816D1032914D06B4854
:202F300014F074F880B9012014F0A0F80CE012F0A3FC0246A0796249009008984346019038
:202F5000102006F095FA68706D78002D2DD135E007000080701600206B7833BB5C4857496D
:202F7000009002221020034606F082FA59484A46524900901020034606F07AFAED1C0998B9
:202F900029680160A988012381802078637012F073FC024601230A9D6079494900901020BF
:202FB000019506F065FAC0B258B184F801B008E0AA8841491020052306F05AFAB8F1010F6F
:202FD0002AD1256A45B32D6835B36078A84723E06879132820D12889012808D1607B022853
:202FF00005D11C4814F034FA12F09AF914E036491020052206F03CFA81B2164811F040FDFB
:203010000AE06888C00B07D3334852462B4900901346102006F02CFA059808B114F0B5F95D
:203030002579E078790830D355EA00032DD0204600788DB9E179257A8DF808100B9A8DF8E3
:20305000095013680DF10A052B609288AA8005E005160110941600208DF80890617A8DF858
:203070001010A17A8DF8111012F006FC1149024602AB102006F0FCF938B1256A84F801B04C
:203090001DB12D680DB15846A847B80803D3134930460CF0ABFEF808FFF4EFAD607B401E9D
:2030B0003FF4D3AD401E7FF4E8AD12F039F9E4E5012C010059440110C11701103DBF000029
:2030D0000945011051BB0000F58401104C160020EC150020FC150020C4150020E215002007
:2030F0002DE9F84F012012F033F801280ED1DFF8F874396800204871386810F02DFE04F091
:20311000F9FC040003D1812014F0DEFC68E201206071DFF8D854DFF8D8044178491C417092
:203130003968A07981F8A00040200DF0F3F92060287901281CBF002013F02AFCE86821681C
:20315000DFF8B05400F5B060C860286801680A79032A1CBF002013F01BFC2868DFF8988416
:203170000168DFF898B401F10809062299F80000C0F3801084F82E0109F1020104F594700F
:2031900013F050FD042209F10E0104F1240013F049FDD8F80000A67900F10C03042209F12F
:2031B0000E0103EB461013F03DFDD8F80000A37900EB4310032209F11201103013F032FDA1
:2031D00004F12C0699F81500B070022209F1160104F1300013F026FD022209F1180104F146
:2031F000320013F01FFD022209F11A0104F1340013F018FD30896084022209F11C0104F127
:20321000360013F00FFDB078F18872894000B0704900B08840001201B080F180728189B2BA
:20323000638C5B1C4800434392B2934200D231B99BF8000080210AF075F83B21FEE004F1AB
:203250002E01204613F02EF90520A081204613F04BFB052209F11E0104F1610013F0E2FC33
:2032700099F823004009307014F02AFC60823A68E34F518A401A04F59771888104F161012B
:2032900099F82300DFF87C9300F01F00F073204610F06EFE29680A68002010711C25A17941
:2032B0003868694341F6210242520022A17969430144001D4A80A1796943425099F80200C5
:2032D000410609D5D049088841F20A4290420CBFCE48CF48C4F89C012046D4F89C118847C0
:2032F0003968A37901F10E026B43D054A1793868694308440021C173C648017881B1B08835
:2033100070B9002171730120208160812046D4F89C1188473968A37901F10E026B43D0548D
:203330003868A27900F10E016A43885C707394F8960108B913F02CFBA1793868DFF8D8A235
:203350006943084494F896114A1E02740023A17938686943084400214174A279396801F1FB
:2033700012006A4301F1140C8352A279D8F8000000EB42136A434CF80230A2796A4311442C
:20339000A64A8A61DAF814100B78DA074CBF4FF0100C4FF0000C99074CBF202100215A07C9
:2033B0004CBF402200221B0700F10803A07941EA0C014CBF4FF0800E4FF0000E0A4340014C
:2033D0004EEA020242F00F021A54D8F80000A17900EB41100B224272D8F80010A07901EB04
:2033F000401104228A728E4A1378D8F80000A179012B00EB411002D10121C17203E0DAF8B8
:2034100028104A78C272D8F80000A17900EB41101F220276D8F80010A07901EB4011002237
:203430004A76A0790AF08CFDA279D8F8001052018850A2795301C85820B90721204612F002
:203450005EFFCDE07748016801EB021014F034FB744AA0791368D8F8001003EB00130A1D9F
:2034700040011350081DA27952018058F063A07940010958716404219BF8000009F052FF48
:20349000644BB2881978901C11B10AB9F088801C618A94F806B041434FF4C87205FB0BFB29
:2034B000B1FBF2F1491CA061616140F6C41C23683A68CDF800B002F1080ED3F80CB00CFBF6
:2034D00000B0411A0098A1F5A8614EF8001002F10800A17969434058986002F10C01A079DA
:2034F00068430C32095C01F0EF011154A0793968684301F10C020C31125C02F07F020A5447
:20351000A0793968684301F10C020C31125C02F0F00242F002020A54A17938686943084461
:20353000417B01F0F00141F0010141733868A27900F108016A438858216808616369D8F826
:203550000000A17996F802E05B0000F1140249010CFB0E3303F5F6635350A17900EB411093
:20357000C27C02F0F00242F00402C274D8F80010A079DAF8303001EB4012F0880CFB00F6CD
:203590001868301AA0F51670D061A27901EB4210C17E01F0F00141F00401C176A179386864
:2035B0004D4321684019486099F80100810614D504F59771488F1B2804BF888F1B2808D1CE
:2035D000C88FB0F5A47F04BFB4F86E11B1F5A47F03D0142120460EF091FA13490720087013
:2035F000BDE8F14F01F06AB9104F0020B44D0020684E0020F44B0020700900116E4F002086
:203610006C090011882B0020504F002027260100F52E0100784E0020909401005C4D00203C
:20363000734F00208C4E00206F4F00202DE9F843040014D1002013F0ABF910E020460FF06A
:20365000ABFA012808D065E08A0740F1548101F0FD0101700020B07120460FF011F904F1D3
:203670006605687D002855D0697CDFF8A494022904F1EC0704F59E7804F5B07604F5C67039
:2036900035D0042949D005295CD0062900F08A800729D3D0092900F0EC800B2900F0C18086
:2036B0000C2900F008810D2900F0D0800E2900F0EA800F2900F02881102900F0428111294E
:2036D00000F05C81122900F00E81142900F08781162900F05A81172900F07581FC2919D0E0
:2036F000FD2900F09581FE2900F09B81A2E7297C012909D199F80300002815D016212046EB
:2037100012F0FDFD012006E020460EF014FE2874E88A28830020BDE8F283297C012940F02E
:20373000948199F80200002800F0E580FC21204611F032FAA07904F1B80204F1B00114F032
:20375000B7F98CE7297C01290FD199F8020020B184F89410002038607860B87A012868D1DF
:203770000621204611F018FA79E704F1E7063078012809D1204611F0F3F80128CAD1002076
:20379000B87201202874C5E770780028C2D004F1C70204F1A00104F1D70014F085F9012021
:2037B00030705CE7297C012940F0538199F8020000283ED0618CE18320460FF061F801204A
:2037D0002870204610F092FB0120A871397A787C012900F010000FD148B1002088F80500C5
:2037F000D8F8001098F8060049080EF08BFAA079002114F055F90EE040B1D8F80020C54807
:2038100004F5A1735208214613F04EFDA0790122002114F041F9002038723873F872B872D8
:203830001DE7287C012805D1F97A012908BFFC2197D060E020460EF095F90128A3D10020FA
:20385000F87284F894000120287408E7297C012940F0038199F80200002809D0002184F87E
:20387000941001202870204610F040FB0120A87188E0297C012940F0F48099F80200D0B30F
:20389000618CE183E8E6287C012840F0EE80387C022804F1FD0204D1A179002014F0F8F8B9
:2038B000DAE6032840F0EA80A1791A2014F0F0F800203874D0E6287C012804F20D1140F0A0
:2038D000E8800B78012B04F5897240F0E8804878012807D15388009300201388CA78A179EF
:2038F00014F0D2F8B8E6297C012940F0E78099F802000028F6D1298B481E288380B2002845
:203910007FF408AF2221FAE6287C012840F0DA8098F80910012902D130780F281BE098F8E3
:203930000800012826D1002188F80810288D000900901A20AA8CEB8CA179520814F0A0F851
:203950008AE6287C012840F0C18098F80910012910D1307810281CBF002013F019F80020E6
:2039700088F80900288D00090090AA8CEB8CA1797078E2E7287F0028E2D1BCE7297C0129F4
:2039900040F0A88099F80300F5E7297C012940F0A580017B4A061DD4CA0709D501F0FE01CF
:2039B00001730023A179707800220AF013FE53E68A0740F1988001F0FD0101730023A1797E
:2039D00000221A20F1E7297C012940F09980027B510690D5017B01F0BF0101733CE6297CEA
:2039F000012940F08F8001788A067FF52DAE01F0DF010A0701700AD501F0F7010170F08BEF
:203A10000090738BB28B318BA07914F061F821E6A97E204611F0C0F815E7002012F0B8FF77
:203A300078E6A87E0F28F8D1FC21204611F0B4F8B8F812000090B8F81030B8F80E20B8F8F2
:203A50000C10A07914F04CF864E620460BF008FC5DE620460FF04AF959E6204610F02AFC74
:203A700055E620460EF016FB51E620460DF038FE2874E88A2883012038744BE6288B401EEE
:203A9000288380B20028F8D1A179222014F000F838E70120887020460DF06CFA37E6288B1F
:203AB000401E288380B20028E7D15088009022201388CA78A17913F0E7FF23E720460FF0E2
:203AD00055FB24E620460AF0D5FD20E620460AF021FE1CE620460EF0CFFB18E616212046FA
:203AF0000AF08AFB13E6288B401E288380B20028C3D1A1790023002222200AF06BFD01E7A9
:203B10001721ECE7142120460CF080FAFFE500BF5C4D0020110F01002DE9F84FDFF828444C
:203B3000A178FF2904BF002012F032FFA07813F08BF9044604F1680604F5C9753168086892
:203B500004F1900710B10022E28310E0B17B002904BFB07E00280AD13978002904BF28780B
:203B7000002804D1217F012904BF608CE0832189E08B4118491C6181204612F0B3FC012867
:203B90001EBFDFF8C8030178012904D120890022401CE2836081B07E01280CD1B28B618956
:203BB000208913F069FF30B121896289481C82422AD0B28B1FE0387801280CD17A8861896B
:203BD000208913F059FF30B121896289481C82421AD07A880FE02878012815D16A886189CD
:203BF000208913F049FF00281FBF2189481C6289824209D06A88824206D0501E608180B218
:203C100013F036FF401EE0832878012801BF69882089401C814207D16A792A71002028704B
:203C30001346A1790AF0D6FC04F59A71087920B120890021401CE183608104F12E07B07E1C
:203C5000012801BFB08B2189491C884238D1608104F18601204612F025FCB08C618960845E
:203C700000202077E083E0894118A181B08B218913F0FEFE8046B988308C728C01FB080885
:203C9000F08C8A4204BF3989884202BFB18CFB88994207D000090090B38CA17952080020DE
:203CB00013F0EEFEB07F3870708CB880B08CF880F08C3881204612F017FE0220B07601E06B
:203CD000B7F80480E28BDFF88892501C00FB08F140F6C41808FB01F000902368D3F80CC02B
:203CF0006044DFF870C2D860DCF800E09A489EF800A003884FEA9A1ABAF1030F13D199F859
:203D10000FC05FEACC7E48BF00230CD45B1C9BB2012B11BFB4F812C004F59A7CBCF806C060
:203D30000CF2DC5C01E0B4F812C00CFB01FC4FF4C87EBCFBFEFCDFF824A20CF1010CC4F83D
:203D500014C0038084F820204FF01C0BA379A1610BFB03F3DAF80010226801F1080001F168
:203D7000080CC058D3681061A0790BFB00FE60691B1A4CF80E3001F10800A3790BFB03F3AC
:203D9000C058906001F10C02A0790BFB00F00C31125C02F0F00242F002020A54DAF8000007
:203DB000A279811C0BFB02F200208852287908B912F0EEFDDAF80000A27900F11001287968
:203DD0000BFB02F240088854A079DAF800100BFB00F00844002141742879042814D1A079D7
:203DF000DAF800100BFB00F001F110022B7A125C103142EA83020A54A179DAF800000BFB82
:203E100001F1084420214174DAF80000A27900F112010BFB02F200238B525149A27909684D
:203E3000520101F11403D4F814C09B5801F1140E03EB4C034EF80230B27E022A0AD1A27968
:203E5000520101F114033E789B5808FB063301F11406B35099F80F20D30749D5A2790BFB29
:203E700002F200F1080300F108069B58A3F5A863B3500830A27923680BFB02F282589A60FE
:203E90000098121A1A6101F11402A079400101F11403125802F5F6621A502879042807D1A0
:203EB000A079400101F11402125802F5B0621A5001F11400A27952018058C4F8340101F184
:203ED0001C03284AB888166BA57908FB00F730686D01381AA0F516705851A37901EB4310F1
:203EF00021490D78012D0EBF0122916A4A7819E02879A37904280CBF4FF44B604FF4E660C4
:203F100001F114025B01D258101ABA8808FB02F2A2F516729042D2D30821204612F0EFF991
:203F300001200FE0C272A179DAF800000F4A0BFB01F108442168486007201070204610F066
:203F500078FA0020BDE8F28F684E0020784F00205C4D0020084F0020840900116C09001178
:203F70007009001190940100734F00206F4F00202DE9FE43BF4C0F460646F80B80F050817B
:203F9000B80880F03D81E07ADFF8F492B90F80F0B680607A002840F096803809C0F09580B0
:203FB000A07A20B10020A072052011F04FF800254FF001086570284684F8078004F0CFFBF6
:203FD000AD4904F174002A4613F024FA207901281AD16079C0B9DFF8A482D8F800000028ED
:203FF0004CD048460068006B804761694346401A000BA0611968E2698018B0EBC11F98BF7E
:20401000E0613BD9E56101E084F80480DFF87482A8F115000068000A30D340F60900A086BF
:2040300094F8410000F0F00040F0010084F84100E58694F8400000F0F00084F84000A563FA
:2040500013F0E2F908F6FF7211686FF0020321F00201116004F13401C8F8FB3F8A4AC8F8E9
:20407000EB1F11688908FCD3C8F8FB3FD8F8FF1F41F00201C8F8FF1F13F0F6FC656110F098
:2040900035FA82480560022010F0E0FF112009F009FA307C10B90E2009F004FAE5712572FD
:2040B000A07818B906F1380013F0C4F9784813F065F878490878F8B10D7004F1D0000421A7
:2040D00013F0C0F918E0380914D2B80BC0F0C98004F1240013F0A8F9061C08D0706830B1C9
:2040F0007568F068B6F91C1000222023A84727F40057B6E00020607227F00807B1E020B1CA
:20411000042010F0A3FF0020E072B168088840F602054FF0000885420AD0B0F5C15F07D0ED
:204130000A8B4FF61F60104040F43470088306E00A8A4FF61F60104040F4347008826069AA
:20415000E0B1D9F85400016804208847B0B1D9F80000006B80476169814226BF401A401EAF
:20417000401A000BF060708AF168401840F6C411F06081422CBFB0F5FA7FF16094F841008A
:2041900010F00F0F0BD1708CED1D854207D1B56930466FF4807142464FF00073A8473E49D8
:2041B00004F17400424613F035F9607958B10220ADF80000684611F06BFD84F80580BDF857
:2041D0000800A4F8700001206070E078401CE07004F1200084F8068013F026F9002808BF9E
:2041F00047F0020702D0192013F012F97569414630464FF080630A46A84727F0005730E09C
:2042100004F12C05284613F00FF907F00BFF284613F00AF927F0020708B147F0020720E061
:2042300013F0F2F8014604F1280013F0FDF80646B569A80810D27EB125EA0500B061084687
:2042500013F012FC706850B12A46F068B6F91C1075680023A84702E0084613F005FC27F483
:20427000804727B104F1D000394613F0EBF8BDE8FE83C046E8180020FD6001006809001139
:204290008C0100101500044010100440000004602DC100006409001131B70000BB482DE9E3
:2042B000F84F0025BA4CB849056094F8E200002800F06581012800F02F81B64E02283CD0A7
:2042D000032840F05C8151F8250CD4F8B8100029A0F5C060C4F8D400B8BF49420028B8BF79
:2042F0004042814226DA4FF08057D7F8A4014568B4F8BC0030214FF47F4208230090304644
:20431000A847D7F8A4014568B4F8C00004214FF4F802122300903046A847D7F8A401B4F865
:20433000D070456820214FF440620A2330460097A847012584F8D8501CE151F8258C12F06E
:204350002FFF2F4600B901273946934F38680028FCD0B146012609F10409D9F82CA03E6074
:2043700009B112F023FFCAF30720C4F8BC0012F017FFAA4600B9B2463B68002BFCD0D9F8CF
:2043900000B0BAF1000F3E6001D012F00FFFCBF38440C4F8C00012F003FFAA4600B9B24681
:2043B0003B68002BFCD0D9F81C90BAF1000F3E6001D012F0FBFEC9F38120C4F8D000B8F51C
:2043D000C061C4F8B81000F09C8094F8D80068B9C4F8D410D4F8C000C4F8C800D4F8BC70EF
:2043F000C4F8C470D4F8D030C4F8CC30D4F8D410D4F8BC30002954BF02206FF0010004F11E
:20441000C802176801EB41014018411000EB917107EBA1001060D4F8C810C4F8C4300029FF
:204430001CDD1E293CDDD4F8CC0030B93429B4BF15391E21C4F8C81025E02A29BABFD4F804
:20445000C8000B381E20C4F8C800D4F8C4003F28B4BF401C3F20C4F8C4001FE0D4F8CC0043
:20447000032812D011F10B0FC6BFD4F8C8000B30301CC4F8C800D4F8C4000028C4BF401E46
:20449000051CC4F8C450032508E011F1150FC6BFD4F8C8001530301CC4F8C800C4F8CC50DF
:2044B0004FF08057D7F8A401B4F8C43030214FF47F424568374800930823A847D7F8A40120
:2044D00004214FF400321123456832480096A847B4F8C860D7F8A40104214FF4F802122373
:2044F00045682C480096A847D7F8A40120214FF440620A23B4F8CC60456826480096A847C7
:2045100001E084F8D85040F2FF50404502D8801C40452FD2082030E051F8251C1F4F4BF297
:20453000F5204843060A3868C0F3814001280CD11B480068006880470FF0BAFF12F03CFEB3
:204550003111C010484306EBE03694F8E50030B91448006820F07F408019460801E084F876
:20457000E5501148310C0660012741600F4D8760287808B90B2000E0052084F8E40004F009
:20459000AFFEBDE8F88FC0462D400C402C500C408023002000A00C4000800C40B43F0050ED
:2045B000EC010010102009403C600C40BA9301002DE9F04F0D46E80789B00BD512F036FD5A
:2045D00028B100218160AE48006800B1804785F0010052E1A80710D5002006900021049072
:2045F00000230290009005910393019101223C2013F036FA85F002003FE11E246807DFF8D7
:204610008482A14F40F19B800020079082469F498878FF2804BF002012F0BAF9386890F8FA
:20463000A00012F011FC06463868C07A96F82EB1022818BF032806F5947906D108F10D0017
:2046500013F00AFA08B908F1070A4946584613F0FFF988B33868807A002818BF012804D17E
:204670004146484611F039F804E04A46594640460DF0E2FBFF283DD06043834608EB0B04CE
:2046900006224946E01D12F0CDFA18F80B0040F0020BE01D079006223868817E01F00101E7
:2046B00086F82E1104F10109386800F1140106F5947012F0B7FA1DE04946584612F077FB38
:2046D000C0B14A46594640460DF0B6FBFF2811D04443444404F10D0013F0BEF940B904F135
:2046F0000D0013F0B9F9002804BF607F012801D14BF0020B06F12C005B460178069141893D
:2047100009090591728C079904920122C088029140080390CDF804A0CDF800900020B179CC
:2047300013F09EF9D6F89C0159498842B0790CBF002101210BF04AFA85F004009DE028065E
:2047500010D5002006900021049000230290009005910393019101223B2013F081F985F086
:2047700080008AE0E8043CD508F1070108F10D0013F06AF938684179012923D1017A0129B8
:2047900018BF04291ED1C17A022918BF032919D1817E00F1140240460DF04EFBFF2811D0E9
:2047B0004443444404F10D0013F056F950B9E11D04F10D0013F048F938680622E11D14302F
:2047D00012F030FA334934484A6800784FF480510FF028FB10B18E2013F032F985F480505F
:2047F0004BE0A80505D512F0DBFC2C4901200860FEE7690504D505F094FF85F480603CE0F7
:20481000680405D5812013F01BF985F4804034E0A80431D5224C206810B1002012F0B8F802
:204830004FF0FF3020600DF0F7FC1E4C216851F8202F684690471C48C16A026B2468009161
:2048500001920021029100F134014A6809781368806A03938DF81010ADF812006B46D4F8D4
:204870000080124A12491348C0471349086004F0CFFA85F4005000E0002009B0BDE8F08F68
:20489000204F002000000011104F0020684E002027260100784E00206E4F0020FC002043A3
:2048B000044F0020F04E002098270020642B0020002A002088490020EC4E00202DE9F04F9F
:2048D000B64D686885B0019020B905B0BDE8F04F13F0B2B80178DFF8C882B24EDFF8C89285
:2048F000DFF8C8A201291CBF0229042946F2A81741F64C5B05D0402918BF802900F09A806D
:2049100043E112F083FC0028FAD00198007806F0CDF80090446814B9002012F039F89AF836
:204930000100002860D002F0F9FB12F08DFA02900168009801914F680CF008FF022827D09F
:2049500000990A78012ADBD1994B19680A7A19F80230337018B913F06BF85844A06020692A
:20497000C17E01F0EF01C1762069C17E41F08001C1762069C17E01F0F00141F00201C1760A
:204990008C48B96841182069C16101210098A0E001980178802913D1082287483270017821
:2049B000012903D09AF80100012803DD78690121C17213E0D8F828107A690878D0720DE08B
:2049D0007D49072030700A787869012A02D10123C37203E0D8F828104A78C272029881790B
:2049F00001988AF80210CBE00098002888D00199009A0078914205D101281CBF002011F03D
:204A1000C7FF15E0012840F0C080694801680A7A19F80200307013F00BF83918A06813F07F
:204A300003F818B913F004F85844A0600120A8700098A5E09AF8010000287DD002F06EFB46
:204A500012F002FA04462068029047689AF8020012F0FAF9039012F0DFFB10F0070F3DD01A
:204A7000A87806F023F8019041680198009102990CF06CFE022831D001990A78012A2AD123
:204A90004B4B19680A7A19F80230337028B912F0CFFF83440098C0F808B000990869C17EBC
:204AB00001F0EF01C17600980069C17E41F08001C17600980069C17E01F0F00141F002014F
:204AD000C176009AB9683B4841181069C16101210198A97054E0002011F05AFF0398A0425E
:204AF00028D002980178802913D10822324832700178012903D09AF80100012803DD7869D5
:204B10000121C17213E0D8F828107A690878D0720DE02949072030700A787869012A02D109
:204B30000123C37203E0D8F828104A78C272A0798AF80200029823E012F06EFB10F0070F70
:204B500029D0A87805F0B2FF04462078D4F80480012820D116490A68107A19F8001031701D
:204B700012F066FF3918D8F8080012F05DFF20B912F05EFF5844C8F808000120A8702046FC
:204B900005B0BDE8F04F08F06BB905B0BDE8F04F002011F0FDBE05B0BDE8F08F48090011A0
:204BB000909401006F4F0020289A0110684E0020104F0020F0D8FFFF734F00202DE9FE4FAF
:204BD0000F46994C0168E16241688068E0609748A16080479648E16A0160A168DFF870B2DB
:204BF0004160E168DFF8648281609249002FA246C16069D03D68E8788DF8080028798DF819
:204C1000090002A812F00CFFA86808B18A490160E86808B189490160894C287820706878A6
:204C30006070A878BE68A0703178E1707368636072696261B168A160F168E1603169216138
:204C50002E697B68A6621868A0616869E062A8692063287F84F834002A6AA26378688668DC
:204C70001EB9002011F094FE00E026627868C06818B9002011F08CFE00E060627868406884
:204C900018B9002011F084FE00E0E0612869A062F86881680E6806B96B4E6A494FF00109A9
:204CB0004E60C66881F801902EB9002011F070FEF868454601E045462E6000685C46FE6833
:204CD000A0617068E06106E0002011F061FE4FF001095C46454628685E494668621C04F176
:204CF00014035020B04710B1286880688047DAF808008047594F0026834669467E705648B3
:204D10003E7004222061304610F022FB0098B0F5801F0CD020B910F00FFF06F05BFB08E0C8
:204D30000FF028FB12F0B8F80420788001E010F003FF4B4FB0462868C7F808808069A6603A
:204D5000804778604748468080F80090142012F095F9FF211422A06212F082FBE01CFF2190
:204D7000022212F07DFB142012F088F93E49086008681422314612F073FB3046FBF71AFED2
:204D9000484610F019FA39480188FF2906D1022101807822001D314612F062FB032012F003
:204DB0003BFE042012F034FE052012F02DFE062012F026FE07200DF077FB2D4E08203070DB
:204DD00006F1400012F018FE0DF036FE363605200A21324611F0C1FC38B14046C0F1090127
:204DF000401C06F8011B0A28F8DB2F68214909200DF10A0201AB7D68087010204146A84745
:204E1000A06ADAF80C10E2690A270A309DF80A307F1E00F8013BF9D1921E5846E26188470A
:204E300003F0E4FABDE8FE8F5025002041490010F8440020407B0100155A0100756B0100C7
:204E500098270020942A00208BEF0000442B00209C28002069610100056C0100402B0020D0
:204E70003C0900113C2B00207C09001188260020EC2000208F0900112DE9F04F0546A64C7A
:204E9000A878216AADF11C0D801F00F03E81C01E00F02981401E78D0401E56D0C01E4AD0A8
:204EB000401E40F03581207A617A00283FD1607800283BD0A88812F09BFD071C00F0288160
:204ED000A87A40080AD3787940B1E968890A05D2B91D01AA09F03AFA0A2825D0207B022844
:204EF00002D1A87A00091FD36078AE887979C0B1607CB0B90120607405F10802304604F09D
:204F100025F9002840F00481206A002800F000814368002B00F0FC80002130460A4698475B
:204F3000F6E00521304603E0032100E00521A88812F05AFDECE0002900F0EA804B68002B2C
:204F500000F0E6806A780221CBE012F077F8002800F0DE80276A0FB1386868B92869002889
:204F70000CBFE0690120698912F03AFD002800F0CF8068890121DBE7286900903C686989CE
:204F90002A7B6B7BE81CA047C2E068784FF00008002840F09580A8794008C0F09180606A61
:204FB000002840F08D8001A841460E2212F058FAA88812F01DFD061C00F0AA806869002847
:204FD00059D081464146062209F1110011F068FDC24620B34846062211F062FDD8B999F89E
:204FF000100009F1110B474605907F1C5846FFB28BF8007010F0B6FD0A280BDA474B059A81
:205010000101A1EB4001C9188879824202D1002FEBD100E01FB947464FF0010A6F61BAF143
:20503000000F09D109F1110101A8062211F0FAFD99F810008DF80A00BAF1010F1BD06F69F4
:20505000CFB1387C07F1110106228DF80A0001A811F0E8FD06F10C00B11D062211F0E2FDE3
:20507000B01D07F11101062211F0DCFD387C40F00200707107E07079B11D06228DF80A002B
:2050900001A811F0CFFDA9799DF81120C1F3800010438DF81100080905D39DF8110040F0C6
:2050B00008008DF8110001A8294602F00BFE28B92078022108F036F940462AE04FF0150880
:2050D00012F0D4F8206A18B343680BB3A8886A7801219847B8F1000F1AD0206A0321424649
:2050F0004368A8881BE7E878291D002209F02EF90A280DDA410001EB800005F10C022530BC
:205110000421C0B206F012FF02E0A8880DF070FD012007B0BDE8F08FEC200020DE2100201E
:205130007CB5A34D144602460026A2F58062192A1BD8DFE812F031012A0122011901110152
:205150000C010401FD00F300E700DF00D700C500B9001A001A00970081007A0065005C009B
:20517000520047003A0030002500282880F29A80022940F09780218812F02EFC064614E193
:20519000012940F011812178284601750121C17411F064FE09E1012940F00681002C00F0F5
:2051B000038128461230024614E0102940F0FC80002C00F0F98028465C301022214611F061
:2051D00031FDF2E0012940F0EF80002C00F0EC802A46921D21781046E4E0262940F0E480B9
:2051F000002C00F0E180284626226C30E6E7012940F0DA80002C00F0D7802846401D9CE095
:20521000602900D144B9012940F0CE80002C00F0CB8028460D3090E005F19200214660228C
:2052300011F000FD01206873BFE0012940F0BC80207812F0CDFBB8E0012940F0B58021780D
:20525000022900F3B180284600F10C0211702178022918BF301C02D11021C172012012F0C0
:20527000B3FBA2E0072940F09F80611C6846062211F0B8FB20786946324609F067F8044607
:205290000A2C0FDA12F09CFB38B9204605F082FF10F002FE0DF0D0FB87E0284601212C305E
:2052B000015582E0022680E001297DD12A462178907B0028917378D12078012875D1E9E7C6
:2052D0002846027B01296FD1022A04D02178072901DB102904DD022A66D12178102963D141
:2052F000C17262E001295FD121780A295CDA2846093057E0012957D12178022954DA28463D
:2053100008304FE000294FD112F05AFB10B911F064FDBDE7284601210F3043E0042943D174
:205330002168244888423FD328461C3001603CE0012939D12B4603F10A00217832E00129DD
:2053500032D1217802292FDA2846C01D2AE010292AD128464C3030E7012925D121780229FF
:2053700022DA2846001D1DE001291DD1217804291ADC2846C01C02462DE7012914D1217877
:20539000022911DA2846821C25E702290CD1218828461630018008E0012905D1217802293D
:2053B00002DC0548017000E0182630467CBDC046EC2000203F420F00ED2000202DE9FC4132
:2053D000A0F2013714468846022F40F232819B4E9C493F1F0F2F04D9143F4CD0BF1E1CD036
:2053F00011E0DFE817F0CF00C9000D01FA00C100B9002601AF00A700100010009D008F00FB
:205410007F0074006600282880F21381B8F1020F40F00F818849238807E1B8F1010F40F006
:205430000881F078012800F00481324620781179107189B9002800F0FC805078012800F0FB
:20545000B580042800F0B280062800F0AF80052800F0AC80BDE8FC812078002840F0E980A8
:205470005078032800F0AF80072800F0AC80052840F0DF80A7E0B8F1010F40F0DA802078A1
:20549000012840F0D68006F1EC0011F0BFFD002840F0CF803446002004F13A010AF0A6FCA0
:2054B000002840F0C68004F1C80011F0D1FFBDE8FC81B8F1020F40F0BC8020880A28C0F2DC
:2054D000B880B0F5486F00F3B4808E1C17E0B8F1020F40F0AE802088B0F5FA7F80F2A980E7
:2054F0000E460CE0B8F1020F40F0A38020880628C0F29F80B0F5486F00F39B803E3630801A
:20551000BDE8FC81B8F1020F40F0938020880628C0F28F80B0F5486F00F38B803C36EEE724
:20553000B8F1010F40F085802078062880F28180454E0EE0B8F1010F7BD12078042878DA98
:205550000A3606E0B8F1010F73D12078082870DA09363070BDE8FC81B8F1010F69D120787A
:20557000042866DA0836F4E7B8F1010F61D1207804285EDCF61DECE7B8F1020F59D120883B
:205590001036BCE7B8F1010F53D13079012850D032462078D178D07069B9002849D050787F
:2055B000012803D0042818BF052842D1012011F05DFDBDE8FC81207800283AD15078022841
:2055D00018BF052835D1107810F056F91C490246102003F04DFFBDE8FC8106F183050021FC
:2055F0001F2228460BF04BF921464246284609F07FF944463078B47110F03EF9002311E03D
:2056100006F1640500211F2228460BF038F921464246284609F06CF944463078747110F04C
:205630002BF901230094094901950246102003F01FFFBDE8FC81C046BD840110A8150020B6
:2056500099450110E8150020E2150020094501102DE9F04F9E4C20780E46F10BADF11C0DCA
:20567000C9036ED1B0085ED2606AA16A720807D2F00828BF86F0040680F02581002023E166
:20569000858861B904F11800924A00904FF6FF710223012012F090F90146A16221B304A80A
:2056B00000900027019702230293FF220392228B28460DF1120301F029FC58B99DF813001E
:2056D0009DF81220A16A12EB002204D0498928460EF0CAFBA16A228B08463B464FF6FF71B6
:2056F00012F066F90146A162206A00291CBF012186F001061FD168B14368616A5BB1888827
:20571000002201219847206A676A4368B888032100229847616A888811F0AAFB11F01CF954
:2057300086F00106CFE00020014602F0CBFA30B1012186F00206207807F0F4FDC3E0022148
:20575000F7E709F0AFFC5FEA000800F0BA80054628784FF0010AB03812D0401E03D01F38B5
:2057700000F0A580A7E02879002840F0A480B8F80200B8F80610B8F808200EF075FB9DE025
:205790002879401E41D0083803D0743800F0828087E068781A2879D06888814611F060FD51
:2057B000801E18D0401E7CD1288901280AD16889032807D1E9688A78484604210DF026FDD9
:2057D000024600E01822206A00286AD04368002B67D0042116E02989688852460129814618
:2057F00009D16989032906D1E9688F781FB910210DF00CFD0246206A002852D04368002B71
:205810004FD00521484698474BE02B7A688805F10807082B814639D111F022FD801E12D05D
:20583000401E33D1287B0A2818BF122205D16889042100220DF0EAFC0246206A30B34368C5
:2058500023B3042120E07888102100220DF0DEFC237D834693B1484612F0CAF870B11E498C
:205870000B784BB94179831D524601F001010846194611F0FBF801E05046E074206A28B1DD
:2058900043681BB105215A4678889847688811F0EFFA06E06A8811F0E3FC014610460DF0B0
:2058B000D5FE297905F1080012F03AF903E04046FFF7E2FA8246BAF1000F02D0284610F033
:2058D00071FE86F40046B0B207B0BDE8F08FC046EC200020B49001005A4F00202DE9FC41B9
:2058F000884C894A2678894F894D8A490D2E30464FF4A0534CD8DFE816F003010E000E00DA
:205910000E000E00FB00FB006800FB00A700A700D800D800DF008049176041F204464C8894
:205930007E4FB4421CBFB1F81AE0B6450BD0B1F83280B0451CBF41F20A46B44203D0B645CE
:2059500018BFB04502D12E80176076E0022C744E2C8035D94FF48067E41B1AD0241F012CF0
:205970001DD94FF47F77E41B1BD04FF44067E41B0FD0A41E012C0CD9241F0AD0641E012C96
:205990000DD940F2F937E41B012C19D9241F08D0AEE0022814BF2B80624E16604DE0624E3D
:2059B000FBE762480468257A012D05D141F20240488048834886F0E74B804B834B86ECE752
:2059D000002010F0E5FF832096E059488178FF291ED01C2041435748176040F20446006830
:2059F000841C645A2C80A41B012C534D10D94FF47F76A41B15D00A3C012C14D940F6F6367A
:205A1000A41B032C84BF641F012C0ED9A41E012C76D940F2FD36A41B07D0641E012C02D9EB
:205A300005E041F20143801C4352156005E0002010F0AEFF852012F047F8BDE8FC413F4853
:205A50000078012107F06EBC4A882A8040F20443D21A55D040F6FC73D21A15D0083A4FD09E
:205A70004FF47F73D21A22D1354C364A2568364800680023CDE9002355F8086F334B02222C
:205A9000B047334908803BE0092810D131490A68508960B1304908780CF01EFF00210020A5
:205AB00011F082FF002020702AE048882880002010F06EFF85201FE04A882A80022A0DD963
:205AD00040F20440121A1BD040F6FC70121A05D0083A15D04FF47F70121AE8D1887B801CA9
:205AF000C0B2B528A8BF662088730020488007E0002010F04DFF8420BDE8F64111F0E4BF00
:205B1000BDE8F3816F4F0020204F0020B3730100504F00200C090011204A0020F130000038
:205B300049B90000C1D90000755B0110104F0020684E00206C0900110D6D00006E4F0020A6
:205B5000F04E002002000080EC4E002005430100424F0020A02B0020714F002010B50B78EE
:205B700084074CBF43F0020303F0FD0304064CBF43F0800303F07F0304074CBF43F00803C0
:205B900003F0F70384064CBF43F0200303F0DF0310F0AA0F0B7004D0107840F00C001070FC
:205BB00010BD18B9117801F0F301117010BDF8B50F4600263878022814461D4667D17868A4
:205BD00001784278069801EB022189B2002818BFB1F5285F01D00B20F2BD4FF42850091AE5
:205BF0000AD0491E1ED0491E4BD0491E22D0491E28D0C53941D04AE0F86811F033FC069BC2
:205C1000079980B2C21A8A42ACBF0846C01A80B2C118162904DA28800246F868C1180DE029
:205C30000D2636E0F8680088022129802070000A60702EE0062028800622F968204610F022
:205C5000F1FF26E0F868B0B108212980018821700188090A61704188A1704188090AE1701D
:205C7000818821718188090A6171C188A171C088000AE0710DE029800BE04A480178CA0730
:205C900005D401202880F8680178217001E02E8001263046F2BD2DE9F8460E4681463078F6
:205CB0000024022817469A4678D17068017842783C4D01EB022189B24FF42850091A08D06C
:205CD000491E30D0491E55D0491E3FD0C63960D064E0F06811F0C6FB089980B2884206D348
:205CF00008460AEB0001162903DB0D2457E0072455E0F36852463946184410F093FF08986B
:205D10005044ADF8200000210898F368C0F11602184411F0A5FB686800281CBF0268002AD1
:205D30003DD0002123E0089888BBBAF1020FDCD139787878F26801EB002111806868002845
:205D50001CBF0268002A2AD0012110E00898F0B9BAF1060FC9D1F0680622394610F062FFB5
:205D7000686800281CBF0268002A18D003214846904714E0089850B9BAF1010FB5D13878AD
:205D9000002813BF0128F1680870802407E00B2405E02878C10758BF032400D5012420465A
:205DB000BDE8F286B42A00202DE9F04F8246DAF800600C465FEA0208ADF11C0D14BF002109
:205DD0004FF0FF3106F14800834611F0B2F8002818BF0B2040F00681002565708448F46096
:205DF000B8F1010F057004D065700220F4600FF027FB2078012840F2AB80801E012868D9FF
:205E1000801E012833D9801E012800F2DF8011F0FBFA06904FF0805000F5EE77D0F8DC01ED
:205E3000A378466A009321782846062908BF0120019001200290A068228AE1686368B047D3
:205E50008146069811F010FEB9F1000F40F0C080B8F1000F02D010F0A9FE02E050460FF0ED
:205E7000CBFF002800F0A4803868806A2AE011F0CBFA06904FF0805000F5EE77D0F8DC010E
:205E9000012306680093A168A27860682478AC46042C08BF9C466346B0478146069811F075
:205EB000E3FDB9F1000F40F09380B8F1000F02D010F07CFE02E050460FF09EFF002877D06F
:205ED0003868406880474949C1F8B0510D6081467EE011F099FA06904FF0805000F5EE7633
:205EF000D0F8DC01E38A87690093E0680190208B0290A0780390207D0490012105912278B9
:205F10002846022A08BF081CE1786268A368B8478146069811F0A8FDB9F1000F58D1B8F129
:205F3000000F02D010F042FE02E050460FF064FF00283DD03068006A80475FEA000947D1EE
:205F50003068C569A168E28A2369E078A847BEE711F05AFA06904FF0805000F5EE76D0F863
:205F7000DC01E38AC7680093E0680190208B0290A0780390207D2946049001200590257851
:205F900005B9014608466268A368E178B8478146069811F069FDB9F1000F19D1B8F1000F4A
:205FB00002D010F003FE02E050460FF025FF08B9142017E03068406980475FEA000907D145
:205FD000306802692169E078904780E74FF0FF39B8F1010F02D002200FF038F8584611F09C
:205FF00029FA484607B0BDE8F08FC046504502408E0900112DE9F04FDFF80CB29BF8000003
:20601000002885B004D0401E032804D9801F012840F2F780EFE07D4DDFF8F4812868DFF81C
:20603000F49103687C4E03F10807062207F1080103A810F0F7FD0622B91C01A810F0F2FD36
:206050003878C0F380118DF800101E24C10900F00F02032A39D16879C0F38000814233D188
:206070002969062203A810F08DFA00282CD09DF8000001A911F0ECFC002825D0314601A89B
:206090000FF02BFB0746FF2F1ED0D9F80000807A6743002818BF02280BD0012818BF0328BE
:2060B00012D1701CF25DC119404611F079FC10280AD0F41901AAE11D40460CF01CF80622B6
:2060D00001A9E01D10F0AEFD90E000F00F00052840F097806879C0F380008142F4D129694D
:2060F000062203A810F04EFA0028EDD09DF800003F7801A911F0ACFC7F0940F2024A88B3B0
:20611000314601A80FF0E9FA8346BBF1FF0F6DD0D9F80000807A002804FB0BF118BF0128BF
:2061300000910CD0022818BF03285FD10846711C325C0144404611F033FC102856D050462E
:2061500011F02AFC009806EB000A01AA0AF1070140460BF0D0FF062201A90AF1070010F0A3
:2061700061FD1CE09BF8000002283FD19DF8001001AA30460BF060FE8346BBF1FF0F35D041
:2061900004FB0BF03118487F012805D070BB01F10D0011F061FC48B3504611F0FDFB04FBD6
:2061B0000BF4D9F80010305D88760622701C0119D9F80000143010F035FD184918488A788C
:2061D000510604D5F90758BF41F20A4101D541F204414180418341861248134A01801348BD
:2061F000134908600121107807F09CF829680A680020107105E0002010F0CAFB862011F081
:2062100063FC05B0BDE8F08F6F4F0020F44B0020CC470020104F002000000011882B002063
:20623000204A0020504F00206E4F0020F1300000204F00202DE9FE4F05467E480024006878
:206250000094C0090ED37C48007858B97C497B4851F8112C104040F0817041F8110C20208E
:206270000DF0BEFD012D40F0E080DFF80092D9F8DC00012840F0D6800220C9F8DC0010F014
:20629000A1F801200DF0ACFD5FEA000805D00120C9F8DC0010F0A6F8C9E011F0CFF8A346B2
:2062B00002906848684DC0F800B0A86A016801208847012804D158460BF07EFA0120009044
:2062D0006248634FC0F800B03868112010F080FF00B10124102010F07BFF08B144F0020427
:2062F0000F2010F075FF08B144F004040B2010F06FFF20B12868574E016B308888470A203A
:2063100010F066FF20B12868534E016B308888475248012606602868816944F0200088474F
:206330004F48066010F04EFF00F001010191400814D2286A81684B4888478246BAF1040FEE
:20635000F7D0BAF1010F04D1286A42684548032190474549086820F003000860584600F00B
:20637000B5FA2B683868986B8047019801280CD0BAF1010F04D1286A42683A483146904727
:206390003949086840F0030008603048066028684169204688470B2010F01AFF20B128686E
:2063B0002C4BC16A188888470A2010F011FF20B12868294BC16A1888884728480660032218
:2063D000C9F8DC20264BC3F800B02868416B204688470128F9D1386804200DF001FD0446A7
:2063F000184806603868134800688009FBD30098012802D130460BF0DFF910F0D7FE082033
:206410000DF0EEFC07460298C9F8DC6011F0C0FAFAF7BCFD0FF0E6FF57EA040018BF4FF0FD
:20643000FF3804E06FF0040801E06FF001084046BDE8FE8F1410094068240020FFFFFCFCB6
:20645000150009400C400940B8010010000222432C200940028F0100FE8E010028200860A5
:20647000800104430040034024220840802300202DE9F041854E0746401EADF1280D7BD08D
:20649000401E76D0DFF81482801E58D0401E3BD0401E40F09980344604F5887010F0D6FFC5
:2064B0007B49102002F0E4FF7A49C2B201AB521E1020628202F0DCFF20B106A940F21530D8
:2064D00004F044FD43A00E210BF0E0F945A013210BF0DCF940F64805012020726E49009526
:2064F000628AFB23102002F0C3FF38B9A07800286AD041A01A210BF0C9F965E0A0780028D5
:2065100062D044A01921F6E749A01F210BF0BEF901243046C470EC3010F09AFF14200FF0AC
:206530005BFA424602F1A8010878FF284CD0002582F8A850284622460AF016FA44E044A090
:2065500011210BF0A3F947A013210BF09FF90025304605720124C470EC3010F079FF142081
:206570000FF03AFA424602F1A8010878FF282BD0DEE741A01021BEE74FF4417008A904F0FD
:20659000E5FC9DF821508DF805509DF822408DF8064000238DF808309DF824108DF8073003
:2065B0009DF820008DF80A109DF825208DF804009DF823508DF80B2001AC39498DF809504F
:2065D00022680A606068486030460AB00E300770BDE8F08141542B434F4E4E4543544544F9
:2065F0000D0A00C0426C65436F6E6E6563745374617465203D20310044617461206C656E4F
:2066100067746820757064617465207375636365737300C044617461206C656E677468206F
:20663000757064617465206661696C656400C04641542B444953434F4E4E454354454420E9
:2066500041465445522054494D454F55540D0A0041542B444953434F4E4E45435445440D1A
:206670000A00C046426C65436F6E6E6563745374617465203D20300041542B41445645523D
:20669000544953494E470D0A00C046C008020020F17F0110097F0110D9B00010281F0020FB
:2066B000631D00202DE9F0470A200EF04DFC864805684FF0090A0DF0DDFC0FF009F9504672
:2066D0000EF042FC4FF004092D1F15F8048F6E78AB78EF78404610F050FC0446404610F024
:2066F0004CFC10F04AFC4440404610F046FC10F044FC10F042FC4440304610F03EFC60405E
:2067100086EA0004304610F038FC10F036FC10F034FC4440184610F030FC10F02EFC604011
:2067300083EA0004184610F028FC10F026FC10F024FC4440384610F020FC10F01EFC10F0DC
:206750001CFC604078402870404610F016FC10F014FC10F012FC0446304610F00EFC44401D
:20677000304610F00AFC10F008FC4440304610F004FC10F002FC10F000FC4440184610F0B3
:20679000FCFB604083EA0004184610F0F6FB10F0F4FB10F0F2FB4440384610F0EEFB10F0CB
